{"contracts/PredictionMarket.sol":{"PredictionMarket":{"abi":[{"inputs":[],"stateMutability":"nonpayable","type":"constructor"},{"anonymous":false,"inputs":[{"indexed":true,"internalType":"uint256","name":"marketId","type":"uint256"},{"indexed":false,"internalType":"string","name":"title","type":"string"},{"indexed":false,"internalType":"address","name":"creator","type":"address"}],"name":"MarketCreated","type":"event"},{"anonymous":false,"inputs":[{"indexed":true,"internalType":"uint256","name":"marketId","type":"uint256"},{"indexed":false,"internalType":"bool","name":"outcome","type":"bool"}],"name":"MarketResolved","type":"event"},{"anonymous":false,"inputs":[{"indexed":true,"internalType":"uint256","name":"orderId","type":"uint256"}],"name":"OrderCancelled","type":"event"},{"anonymous":false,"inputs":[{"indexed":true,"internalType":"uint256","name":"orderId","type":"uint256"},{"indexed":true,"internalType":"uint256","name":"marketId","type":"uint256"},{"indexed":true,"internalType":"address","name":"trader","type":"address"},{"indexed":false,"internalType":"bool","name":"isYes","type":"bool"},{"indexed":false,"internalType":"uint256","name":"price","type":"uint256"},{"indexed":false,"internalType":"uint256","name":"amount","type":"uint256"}],"name":"OrderFilled","type":"event"},{"anonymous":false,"inputs":[{"indexed":true,"internalType":"uint256","name":"orderId","type":"uint256"},{"indexed":true,"internalType":"uint256","name":"marketId","type":"uint256"},{"indexed":true,"internalType":"address","name":"trader","type":"address"},{"indexed":false,"internalType":"bool","name":"isYes","type":"bool"},{"indexed":false,"internalType":"uint256","name":"price","type":"uint256"},{"indexed":false,"internalType":"uint256","name":"amount","type":"uint256"}],"name":"OrderPlaced","type":"event"},{"anonymous":false,"inputs":[{"indexed":true,"internalType":"address","name":"buyer","type":"address"},{"indexed":true,"internalType":"uint256","name":"marketId","type":"uint256"},{"indexed":false,"internalType":"bool","name":"isYes","type":"bool"},{"indexed":false,"internalType":"uint256","name":"shares","type":"uint256"},{"indexed":false,"internalType":"uint256","name":"cost","type":"uint256"}],"name":"SharesPurchased","type":"event"},{"inputs":[{"internalType":"uint256","name":"orderId","type":"uint256"}],"name":"cancelOrder","outputs":[],"stateMutability":"nonpayable","type":"function"},{"inputs":[{"internalType":"string","name":"title","type":"string"},{"internalType":"string","name":"description","type":"string"},{"internalType":"uint256","name":"resolutionTime","type":"uint256"}],"name":"createMarket","outputs":[],"stateMutability":"nonpayable","type":"function"},{"inputs":[{"internalType":"uint256","name":"marketId","type":"uint256"}],"name":"getMarketLiquidity","outputs":[{"internalType":"uint256","name":"","type":"uint256"}],"stateMutability":"view","type":"function"},{"inputs":[{"internalType":"uint256","name":"marketId","type":"uint256"},{"internalType":"bool","name":"isYes","type":"bool"}],"name":"getMarketOrders","outputs":[{"internalType":"uint256[]","name":"","type":"uint256[]"}],"stateMutability":"view","type":"function"},{"inputs":[{"internalType":"uint256","name":"marketId","type":"uint256"}],"name":"getMarketPrice","outputs":[{"internalType":"uint256","name":"yesPrice","type":"uint256"},{"internalType":"uint256","name":"noPrice","type":"uint256"}],"stateMutability":"view","type":"function"},{"inputs":[{"internalType":"uint256","name":"orderId","type":"uint256"}],"name":"getOrderDetails","outputs":[{"internalType":"address","name":"trader","type":"address"},{"internalType":"uint256","name":"marketId","type":"uint256"},{"internalType":"bool","name":"isYes","type":"bool"},{"internalType":"uint256","name":"price","type":"uint256"},{"internalType":"uint256","name":"amount","type":"uint256"},{"internalType":"uint256","name":"filled","type":"uint256"},{"internalType":"bool","name":"isActive","type":"bool"}],"stateMutability":"view","type":"function"},{"inputs":[{"internalType":"address","name":"user","type":"address"},{"internalType":"uint256","name":"marketId","type":"uint256"}],"name":"getUserPosition","outputs":[{"internalType":"uint256","name":"yesShares","type":"uint256"},{"internalType":"uint256","name":"noShares","type":"uint256"}],"stateMutability":"view","type":"function"},{"inputs":[],"name":"marketCount","outputs":[{"internalType":"uint256","name":"","type":"uint256"}],"stateMutability":"view","type":"function"},{"inputs":[{"internalType":"uint256","name":"","type":"uint256"},{"internalType":"uint256","name":"","type":"uint256"}],"name":"marketNoOrders","outputs":[{"internalType":"uint256","name":"","type":"uint256"}],"stateMutability":"view","type":"function"},{"inputs":[{"internalType":"uint256","name":"","type":"uint256"},{"internalType":"uint256","name":"","type":"uint256"}],"name":"marketYesOrders","outputs":[{"internalType":"uint256","name":"","type":"uint256"}],"stateMutability":"view","type":"function"},{"inputs":[{"internalType":"uint256","name":"","type":"uint256"}],"name":"markets","outputs":[{"internalType":"uint256","name":"id","type":"uint256"},{"internalType":"string","name":"title","type":"string"},{"internalType":"string","name":"description","type":"string"},{"internalType":"uint256","name":"yesPrice","type":"uint256"},{"internalType":"uint256","name":"noPrice","type":"uint256"},{"internalType":"uint256","name":"liquidity","type":"uint256"},{"internalType":"uint256","name":"volume","type":"uint256"},{"internalType":"bool","name":"resolved","type":"bool"},{"internalType":"bool","name":"outcome","type":"bool"},{"internalType":"address","name":"creator","type":"address"},{"internalType":"uint256","name":"creationTime","type":"uint256"},{"internalType":"uint256","name":"resolutionTime","type":"uint256"}],"stateMutability":"view","type":"function"},{"inputs":[],"name":"orderCount","outputs":[{"internalType":"uint256","name":"","type":"uint256"}],"stateMutability":"view","type":"function"},{"inputs":[{"internalType":"uint256","name":"","type":"uint256"}],"name":"orders","outputs":[{"internalType":"uint256","name":"id","type":"uint256"},{"internalType":"address","name":"trader","type":"address"},{"internalType":"uint256","name":"marketId","type":"uint256"},{"internalType":"bool","name":"isYes","type":"bool"},{"internalType":"uint256","name":"price","type":"uint256"},{"internalType":"uint256","name":"amount","type":"uint256"},{"internalType":"uint256","name":"filled","type":"uint256"},{"internalType":"bool","name":"isActive","type":"bool"}],"stateMutability":"view","type":"function"},{"inputs":[{"internalType":"uint256","name":"marketId","type":"uint256"},{"internalType":"bool","name":"isYes","type":"bool"},{"internalType":"uint256","name":"price","type":"uint256"},{"internalType":"uint256","name":"amount","type":"uint256"}],"name":"placeOrder","outputs":[{"internalType":"uint256","name":"","type":"uint256"}],"stateMutability":"payable","type":"function"},{"inputs":[{"internalType":"uint256","name":"marketId","type":"uint256"},{"internalType":"bool","name":"outcome","type":"bool"}],"name":"resolveMarket","outputs":[],"stateMutability":"nonpayable","type":"function"},{"inputs":[{"internalType":"address","name":"","type":"address"},{"internalType":"uint256","name":"","type":"uint256"}],"name":"userPositions","outputs":[{"internalType":"uint256","name":"yesShares","type":"uint256"},{"internalType":"uint256","name":"noShares","type":"uint256"}],"stateMutability":"view","type":"function"}],"evm":{"bytecode":{"linkReferences":{},"object":"60808060405234601e5760008055600060025561160490816100248239f35b600080fdfe6080604052600436101561001257600080fd5b60003560e01c806307b322a414610ee85780631c88ef1e14610c805780632453ffa814610eca578063514fcac714610d8557806357bde44614610cc45780635e1b4d9914610c805780637f55821c14610c4f5780638928378e14610bf9578063916520aa14610bb9578063a85c38ef14610b2e578063b1283e7714610a49578063cc88135d1461074b578063ec7dd7bb146106c9578063ec979082146106ab578063efb9fd4b146105dd5763f98b7783146100cc57600080fd5b346105d85760603660031901126105d85760043567ffffffffffffffff81116105d8576100fd9036906004016110ef565b60243567ffffffffffffffff81116105d85761011d9036906004016110ef565b60443582511561059b578151156105565742811115610503576101416000546111f2565b8060005560405192610180840184811067ffffffffffffffff82111761042a5760405281845260208401858152604085019182526060850191611388835260808601611388815260a08701670de0b6b3a7640000815260c08801916000835260e0890195600087526101008a0194600086526101208b01963388526101408c0199428b526101608d019b8c52600052600160205260406000209b518c5560018c01905180519067ffffffffffffffff821161042a5781906102028454610fae565b601f81116104b0575b50602090601f831160011461044b57600092610440575b50508160011b916000199060031b1c19161790555b51805160028c019167ffffffffffffffff821161042a576102588354610fae565b601f81116103e2575b50602090601f831160011461036c5791806102ec9896949260099e9d9c9b9a989694600092610361575b50508160011b916000199060031b1c19161790555b5160038c01555160048b01555160058a01555160068901556102d56007890194511515859060ff801983541691151516179055565b51835461ff00191690151560081b61ff0016178355565b51815462010000600160b01b03191660109190911b62010000600160b01b0316179055516008840155519101556000546040805181815291927f6bfe994aa671108bc4fcb31c2a97ab16ddb967720121010032b2e834bf5eacf692918291610356918301906110ae565b3360208301520390a2005b01519050388061028b565b90601f1983169184600052816000209260005b8181106103ca57509260019260099f9e9d9c9b99979592836102ec9c9a9896106103b1575b505050811b0190556102a0565b015160001960f88460031b161c191690553880806103a4565b9293602060018192878601518155019501930161037f565b836000526020600020601f840160051c81019160208510610420575b601f0160051c01905b8181106104145750610261565b60008155600101610407565b90915081906103fe565b634e487b7160e01b600052604160045260246000fd5b015190503880610222565b60008581528281209350601f198516905b818110610498575090846001959493921061047f575b505050811b019055610237565b015160001960f88460031b161c19169055388080610472565b9293602060018192878601518155019501930161045c565b909150836000526020600020601f840160051c810191602085106104f9575b90601f859493920160051c01905b8181106104ea575061020b565b600081558493506001016104dd565b90915081906104cf565b60405162461bcd60e51b815260206004820152602560248201527f5265736f6c7574696f6e2074696d65206d75737420626520696e207468652066604482015264757475726560d81b6064820152608490fd5b60405162461bcd60e51b815260206004820152601b60248201527f4465736372697074696f6e2063616e6e6f7420626520656d70747900000000006044820152606490fd5b60405162461bcd60e51b81526020600482015260156024820152745469746c652063616e6e6f7420626520656d70747960581b6044820152606490fd5b600080fd5b346105d85760403660031901126105d8576004356105f9610f5b565b6000901561069b5750600052600460205260406000205b6040518060208354918281520190819360005260206000209060005b8181106106855750505081610642910382610fe8565b6040519182916020830190602084525180915260408301919060005b81811061066c575050500390f35b825184528594506020938401939092019160010161065e565b825484526020909301926001928301920161062c565b6040918152600560205220610610565b346105d85760003660031901126105d8576020600054604051908152f35b346105d85760203660031901126105d857600435600052600360205260e0604060002060018060a01b036001820154169060028101549060ff600382015416600482015460058301549160ff6007600686015495015416946040519687526020870152151560408601526060850152608084015260a0830152151560c0820152f35b60803660031901126105d857600435610762610f5b565b906044359160643582151580610a3d575b61077c90611146565b82600052600160205261079a60ff60076040600020015416156111a6565b8315801580610a32575b156109ee5734156109a957612710340290348204612710036109935761097d5784900481151580610974575b1561096c5750915b6107e36002546111f2565b93846002556040519461010086019580871067ffffffffffffffff88111761042a5760076108cd926109409860405280835260208301338152604084018781526060850189151581526108a5608087019189835260a08801938d855260c08901956000875260e08a0197600189526000526003602052604060002099518a5560018a019060018060a01b039051166bffffffffffffffffffffffff60a01b825416179055516002890155511515600388019060ff801983541691151516179055565b51600486015551600585015551600684015551151591019060ff801983541691151516179055565b821561094d578160005260046020526108ed604060002060025490611201565b7fb3f56f4d6c2dea5d6536e848df8b950b9d0da9d1d2a9e588b3d8ce6dd4333e2260025494859261093860405192839233988460409194939260608201951515825260208201520152565b0390a4611248565b6020600254604051908152f35b816000526005602052610967604060002060025490611201565b6108ed565b9050916107d8565b508082106107d0565b634e487b7160e01b600052601260045260246000fd5b634e487b7160e01b600052601160045260246000fd5b60405162461bcd60e51b815260206004820152601c60248201527f4d7573742073656e642045544820746f20706c616365206f72646572000000006044820152606490fd5b606460405162461bcd60e51b815260206004820152602060248201527f5072696365206d757374206265206265747765656e203020616e6420313030256044820152fd5b5061271085106107a4565b50600054831115610773565b346105d85760203660031901126105d857600435600052600160205260406000208054610a786001830161100a565b91610a856002820161100a565b60038201549160048101546005820154600683015490600784015492610adb6009600887015496015496610acd6040519b8c9b8c5261018060208d01526101808c01906110ae565b908a820360408c01526110ae565b6060890197909752608088015260a087015260c086015260ff818116151560e0870152600882901c16151561010086015260101c6001600160a01b03166101208501526101408401526101608301520390f35b346105d85760203660031901126105d8576004356000526003602052610100604060002080549060018060a01b0360018201541690600281015460ff60038301541660048301549060058401549260ff6007600687015496015416956040519788526020880152604087015215156060860152608085015260a084015260c0830152151560e0820152f35b346105d857610bc736610f6a565b906000526004602052604060002080548210156105d857602091610bea91610f80565b90549060031b1c604051908152f35b346105d85760203660031901126105d85760043580151580610c43575b610c1f90611146565b60005260016020526040806000206004600382015491015482519182526020820152f35b50600054811115610c16565b346105d857610c5d36610f6a565b906000526005602052604060002080548210156105d857602091610bea91610f80565b346105d857610c8e36610f35565b9060018060a01b031660005260066020526040600020906000526020526040806000206001815491015482519182526020820152f35b346105d85760403660031901126105d8576004357f4927fe38919783250023d27e65a3e56b6b5c3e49364e51674a41ef08d62460d96020610d03610f5b565b83151580610d79575b610d1590611146565b8360005260018252610d3260ff60076040600020015416156111a6565b6000848152600180845260408083206007908101805460ff19168417905587845291855290912001805461ff00191682151560081b61ff00161790556040519015158152a2005b50600054841115610d0c565b346105d85760203660031901126105d857600435600081815260036020526040902060018101546001600160a01b03163303610e9457600781019081549060ff821615610e5c5761271092610df89260ff191690556004610def6005830154600684015490611186565b91015490611193565b0480158015610e2a575b827f61b9399f2f0f32ca39ce8d7be32caed5ec22fe07a6daba3a467ed479ec606582600080a2005b600080809381938290610e53575b3390f115610e47578180610e02565b6040513d6000823e3d90fd5b506108fc610e38565b60405162461bcd60e51b815260206004820152601060248201526f4f72646572206e6f742061637469766560801b6044820152606490fd5b60405162461bcd60e51b815260206004820152600e60248201526d2737ba103cb7bab91037b93232b960911b6044820152606490fd5b346105d85760003660031901126105d8576020600254604051908152f35b346105d85760203660031901126105d85760043580151580610f29575b610f0e90611146565b60005260016020526020600560406000200154604051908152f35b50600054811115610f05565b60409060031901126105d8576004356001600160a01b03811681036105d8579060243590565b6024359081151582036105d857565b60409060031901126105d8576004359060243590565b8054821015610f985760005260206000200190600090565b634e487b7160e01b600052603260045260246000fd5b90600182811c92168015610fde575b6020831014610fc857565b634e487b7160e01b600052602260045260246000fd5b91607f1691610fbd565b90601f8019910116810190811067ffffffffffffffff82111761042a57604052565b906040519182600082549261101e84610fae565b808452936001811690811561108c5750600114611045575b5061104392500383610fe8565b565b90506000929192526020600020906000915b8183106110705750509060206110439282010138611036565b6020919350806001915483858901015201910190918492611057565b90506020925061104394915060ff191682840152151560051b82010138611036565b919082519283825260005b8481106110da575050826000602080949584010152601f8019910116010190565b806020809284010151828286010152016110b9565b81601f820112156105d85780359067ffffffffffffffff821161042a5760405192611124601f8401601f191660200185610fe8565b828452602083830101116105d857816000926020809301838601378301015290565b1561114d57565b60405162461bcd60e51b8152602060048201526011602482015270125b9d985b1a59081b585c9ad95d081251607a1b6044820152606490fd5b9190820391821161099357565b8181029291811591840414171561099357565b156111ad57565b60405162461bcd60e51b815260206004820152601760248201527f4d61726b657420616c7265616479207265736f6c7665640000000000000000006044820152606490fd5b60001981146109935760010190565b80546801000000000000000081101561042a5761122391600182018155610f80565b819291549060031b91821b91600019901b1916179055565b9190820180921161099357565b6000526003602052604060002090600782019060ff8254161580156115bc575b6115b75760028301549060ff600385015416906000826000146115a557508260005260056020526040600020905b60005b8254811080611594575b15611571576112b28184610f80565b90549060031b1c600052600360205260406000209060ff60078301541615801561155f575b6112f8576127106112f160048a015460048501549061123b565b1115611307575b61130291506111f2565b611299565b6005880154916006890161134361132082548096611186565b6113336005850154600686015490611186565b808210156115565750809561123b565b905561135383600683015461123b565b600682015560018060a01b0360018a0154166000526006602052604060002087600052602052604060002060018060a01b036001830154166000526006602052604060002088600052602052604060002090876000146115345790816113bc866001945461123b565b9055016113ca84825461123b565b90555b8660005260016020526040600020926127106113fb6113f560048d015460048601549061123b565b83611193565b0461140b6006860191825461123b565b9055861561150b5760048a0154938460038201556127108581031161099357600461130295612710039101555b895460018b015460048c0154604080518b15158152602081019290925281018490526001600160a01b03909116918a917fe5e1f82f95eaad8b51715234cffb8a81d56b2a3f64ebd9c7f2ab7841e4053dfc90606090a4815460018301546004840154604080518b15815260208101929092528101939093526001600160a01b0316918991907fe5e1f82f95eaad8b51715234cffb8a81d56b2a3f64ebd9c7f2ab7841e4053dfc90606090a46006810154600582015411156114fa575b506112f8565b600701805460ff19169055386114f4565b60048a015493846004820155612710858103116109935760036113029561271003910155611438565b60010161154285825461123b565b905561154f84825461123b565b90556113cd565b9050809561123b565b506006820154600583015411156112d7565b50949250505060056006820154910154111561158a5750565b805460ff19169055565b5060068701546005880154116112a3565b80846040925260046020522090611296565b915050565b5060068301546005840154111561126856fea2646970667358221220932eae41a2f4417cda4cbe35213d898bfb90f3c786b4ec98a021159d13b1758864736f6c634300081c0033","opcodes":"PUSH1 0x80 DUP1 PUSH1 0x40 MSTORE CALLVALUE PUSH1 0x1E JUMPI PUSH1 0x0 DUP1 SSTORE PUSH1 0x0 PUSH1 0x2 SSTORE PUSH2 0x1604 SWAP1 DUP2 PUSH2 0x24 DUP3 CODECOPY RETURN JUMPDEST PUSH1 0x0 DUP1 REVERT INVALID PUSH1 0x80 PUSH1 0x40 MSTORE PUSH1 0x4 CALLDATASIZE LT ISZERO PUSH2 0x12 JUMPI PUSH1 0x0 DUP1 REVERT JUMPDEST PUSH1 0x0 CALLDATALOAD PUSH1 0xE0 SHR DUP1 PUSH4 0x7B322A4 EQ PUSH2 0xEE8 JUMPI DUP1 PUSH4 0x1C88EF1E EQ PUSH2 0xC80 JUMPI DUP1 PUSH4 0x2453FFA8 EQ PUSH2 0xECA JUMPI DUP1 PUSH4 0x514FCAC7 EQ PUSH2 0xD85 JUMPI DUP1 PUSH4 0x57BDE446 EQ PUSH2 0xCC4 JUMPI DUP1 PUSH4 0x5E1B4D99 EQ PUSH2 0xC80 JUMPI DUP1 PUSH4 0x7F55821C EQ PUSH2 0xC4F JUMPI DUP1 PUSH4 0x8928378E EQ PUSH2 0xBF9 JUMPI DUP1 PUSH4 0x916520AA EQ PUSH2 0xBB9 JUMPI DUP1 PUSH4 0xA85C38EF EQ PUSH2 0xB2E JUMPI DUP1 PUSH4 0xB1283E77 EQ PUSH2 0xA49 JUMPI DUP1 PUSH4 0xCC88135D EQ PUSH2 0x74B JUMPI DUP1 PUSH4 0xEC7DD7BB EQ PUSH2 0x6C9 JUMPI DUP1 PUSH4 0xEC979082 EQ PUSH2 0x6AB JUMPI DUP1 PUSH4 0xEFB9FD4B EQ PUSH2 0x5DD JUMPI PUSH4 0xF98B7783 EQ PUSH2 0xCC JUMPI PUSH1 0x0 DUP1 REVERT JUMPDEST CALLVALUE PUSH2 0x5D8 JUMPI PUSH1 0x60 CALLDATASIZE PUSH1 0x3 NOT ADD SLT PUSH2 0x5D8 JUMPI PUSH1 0x4 CALLDATALOAD PUSH8 0xFFFFFFFFFFFFFFFF DUP2 GT PUSH2 0x5D8 JUMPI PUSH2 0xFD SWAP1 CALLDATASIZE SWAP1 PUSH1 0x4 ADD PUSH2 0x10EF JUMP JUMPDEST PUSH1 0x24 CALLDATALOAD PUSH8 0xFFFFFFFFFFFFFFFF DUP2 GT PUSH2 0x5D8 JUMPI PUSH2 0x11D SWAP1 CALLDATASIZE SWAP1 PUSH1 0x4 ADD PUSH2 0x10EF JUMP JUMPDEST PUSH1 0x44 CALLDATALOAD DUP3 MLOAD ISZERO PUSH2 0x59B JUMPI DUP2 MLOAD ISZERO PUSH2 0x556 JUMPI TIMESTAMP DUP2 GT ISZERO PUSH2 0x503 JUMPI PUSH2 0x141 PUSH1 0x0 SLOAD PUSH2 0x11F2 JUMP JUMPDEST DUP1 PUSH1 0x0 SSTORE PUSH1 0x40 MLOAD SWAP3 PUSH2 0x180 DUP5 ADD DUP5 DUP2 LT PUSH8 0xFFFFFFFFFFFFFFFF DUP3 GT OR PUSH2 0x42A JUMPI PUSH1 0x40 MSTORE DUP2 DUP5 MSTORE PUSH1 0x20 DUP5 ADD DUP6 DUP2 MSTORE PUSH1 0x40 DUP6 ADD SWAP2 DUP3 MSTORE PUSH1 0x60 DUP6 ADD SWAP2 PUSH2 0x1388 DUP4 MSTORE PUSH1 0x80 DUP7 ADD PUSH2 0x1388 DUP2 MSTORE PUSH1 0xA0 DUP8 ADD PUSH8 0xDE0B6B3A7640000 DUP2 MSTORE PUSH1 0xC0 DUP9 ADD SWAP2 PUSH1 0x0 DUP4 MSTORE PUSH1 0xE0 DUP10 ADD SWAP6 PUSH1 0x0 DUP8 MSTORE PUSH2 0x100 DUP11 ADD SWAP5 PUSH1 0x0 DUP7 MSTORE PUSH2 0x120 DUP12 ADD SWAP7 CALLER DUP9 MSTORE PUSH2 0x140 DUP13 ADD SWAP10 TIMESTAMP DUP12 MSTORE PUSH2 0x160 DUP14 ADD SWAP12 DUP13 MSTORE PUSH1 0x0 MSTORE PUSH1 0x1 PUSH1 0x20 MSTORE PUSH1 0x40 PUSH1 0x0 KECCAK256 SWAP12 MLOAD DUP13 SSTORE PUSH1 0x1 DUP13 ADD SWAP1 MLOAD DUP1 MLOAD SWAP1 PUSH8 0xFFFFFFFFFFFFFFFF DUP3 GT PUSH2 0x42A JUMPI DUP2 SWAP1 PUSH2 0x202 DUP5 SLOAD PUSH2 0xFAE JUMP JUMPDEST PUSH1 0x1F DUP2 GT PUSH2 0x4B0 JUMPI JUMPDEST POP PUSH1 0x20 SWAP1 PUSH1 0x1F DUP4 GT PUSH1 0x1 EQ PUSH2 0x44B JUMPI PUSH1 0x0 SWAP3 PUSH2 0x440 JUMPI JUMPDEST POP POP DUP2 PUSH1 0x1 SHL SWAP2 PUSH1 0x0 NOT SWAP1 PUSH1 0x3 SHL SHR NOT AND OR SWAP1 SSTORE JUMPDEST MLOAD DUP1 MLOAD PUSH1 0x2 DUP13 ADD SWAP2 PUSH8 0xFFFFFFFFFFFFFFFF DUP3 GT PUSH2 0x42A JUMPI PUSH2 0x258 DUP4 SLOAD PUSH2 0xFAE JUMP JUMPDEST PUSH1 0x1F DUP2 GT PUSH2 0x3E2 JUMPI JUMPDEST POP PUSH1 0x20 SWAP1 PUSH1 0x1F DUP4 GT PUSH1 0x1 EQ PUSH2 0x36C JUMPI SWAP2 DUP1 PUSH2 0x2EC SWAP9 SWAP7 SWAP5 SWAP3 PUSH1 0x9 SWAP15 SWAP14 SWAP13 SWAP12 SWAP11 SWAP9 SWAP7 SWAP5 PUSH1 0x0 SWAP3 PUSH2 0x361 JUMPI JUMPDEST POP POP DUP2 PUSH1 0x1 SHL SWAP2 PUSH1 0x0 NOT SWAP1 PUSH1 0x3 SHL SHR NOT AND OR SWAP1 SSTORE JUMPDEST MLOAD PUSH1 0x3 DUP13 ADD SSTORE MLOAD PUSH1 0x4 DUP12 ADD SSTORE MLOAD PUSH1 0x5 DUP11 ADD SSTORE MLOAD PUSH1 0x6 DUP10 ADD SSTORE PUSH2 0x2D5 PUSH1 0x7 DUP10 ADD SWAP5 MLOAD ISZERO ISZERO DUP6 SWAP1 PUSH1 0xFF DUP1 NOT DUP4 SLOAD AND SWAP2 ISZERO ISZERO AND OR SWAP1 SSTORE JUMP JUMPDEST MLOAD DUP4 SLOAD PUSH2 0xFF00 NOT AND SWAP1 ISZERO ISZERO PUSH1 0x8 SHL PUSH2 0xFF00 AND OR DUP4 SSTORE JUMP JUMPDEST MLOAD DUP2 SLOAD PUSH3 0x10000 PUSH1 0x1 PUSH1 0xB0 SHL SUB NOT AND PUSH1 0x10 SWAP2 SWAP1 SWAP2 SHL PUSH3 0x10000 PUSH1 0x1 PUSH1 0xB0 SHL SUB AND OR SWAP1 SSTORE MLOAD PUSH1 0x8 DUP5 ADD SSTORE MLOAD SWAP2 ADD SSTORE PUSH1 0x0 SLOAD PUSH1 0x40 DUP1 MLOAD DUP2 DUP2 MSTORE SWAP2 SWAP3 PUSH32 0x6BFE994AA671108BC4FCB31C2A97AB16DDB967720121010032B2E834BF5EACF6 SWAP3 SWAP2 DUP3 SWAP2 PUSH2 0x356 SWAP2 DUP4 ADD SWAP1 PUSH2 0x10AE JUMP JUMPDEST CALLER PUSH1 0x20 DUP4 ADD MSTORE SUB SWAP1 LOG2 STOP JUMPDEST ADD MLOAD SWAP1 POP CODESIZE DUP1 PUSH2 0x28B JUMP JUMPDEST SWAP1 PUSH1 0x1F NOT DUP4 AND SWAP2 DUP5 PUSH1 0x0 MSTORE DUP2 PUSH1 0x0 KECCAK256 SWAP3 PUSH1 0x0 JUMPDEST DUP2 DUP2 LT PUSH2 0x3CA JUMPI POP SWAP3 PUSH1 0x1 SWAP3 PUSH1 0x9 SWAP16 SWAP15 SWAP14 SWAP13 SWAP12 SWAP10 SWAP8 SWAP6 SWAP3 DUP4 PUSH2 0x2EC SWAP13 SWAP11 SWAP9 SWAP7 LT PUSH2 0x3B1 JUMPI JUMPDEST POP POP POP DUP2 SHL ADD SWAP1 SSTORE PUSH2 0x2A0 JUMP JUMPDEST ADD MLOAD PUSH1 0x0 NOT PUSH1 0xF8 DUP5 PUSH1 0x3 SHL AND SHR NOT AND SWAP1 SSTORE CODESIZE DUP1 DUP1 PUSH2 0x3A4 JUMP JUMPDEST SWAP3 SWAP4 PUSH1 0x20 PUSH1 0x1 DUP2 SWAP3 DUP8 DUP7 ADD MLOAD DUP2 SSTORE ADD SWAP6 ADD SWAP4 ADD PUSH2 0x37F JUMP JUMPDEST DUP4 PUSH1 0x0 MSTORE PUSH1 0x20 PUSH1 0x0 KECCAK256 PUSH1 0x1F DUP5 ADD PUSH1 0x5 SHR DUP2 ADD SWAP2 PUSH1 0x20 DUP6 LT PUSH2 0x420 JUMPI JUMPDEST PUSH1 0x1F ADD PUSH1 0x5 SHR ADD SWAP1 JUMPDEST DUP2 DUP2 LT PUSH2 0x414 JUMPI POP PUSH2 0x261 JUMP JUMPDEST PUSH1 0x0 DUP2 SSTORE PUSH1 0x1 ADD PUSH2 0x407 JUMP JUMPDEST SWAP1 SWAP2 POP DUP2 SWAP1 PUSH2 0x3FE JUMP JUMPDEST PUSH4 0x4E487B71 PUSH1 0xE0 SHL PUSH1 0x0 MSTORE PUSH1 0x41 PUSH1 0x4 MSTORE PUSH1 0x24 PUSH1 0x0 REVERT JUMPDEST ADD MLOAD SWAP1 POP CODESIZE DUP1 PUSH2 0x222 JUMP JUMPDEST PUSH1 0x0 DUP6 DUP2 MSTORE DUP3 DUP2 KECCAK256 SWAP4 POP PUSH1 0x1F NOT DUP6 AND SWAP1 JUMPDEST DUP2 DUP2 LT PUSH2 0x498 JUMPI POP SWAP1 DUP5 PUSH1 0x1 SWAP6 SWAP5 SWAP4 SWAP3 LT PUSH2 0x47F JUMPI JUMPDEST POP POP POP DUP2 SHL ADD SWAP1 SSTORE PUSH2 0x237 JUMP JUMPDEST ADD MLOAD PUSH1 0x0 NOT PUSH1 0xF8 DUP5 PUSH1 0x3 SHL AND SHR NOT AND SWAP1 SSTORE CODESIZE DUP1 DUP1 PUSH2 0x472 JUMP JUMPDEST SWAP3 SWAP4 PUSH1 0x20 PUSH1 0x1 DUP2 SWAP3 DUP8 DUP7 ADD MLOAD DUP2 SSTORE ADD SWAP6 ADD SWAP4 ADD PUSH2 0x45C JUMP JUMPDEST SWAP1 SWAP2 POP DUP4 PUSH1 0x0 MSTORE PUSH1 0x20 PUSH1 0x0 KECCAK256 PUSH1 0x1F DUP5 ADD PUSH1 0x5 SHR DUP2 ADD SWAP2 PUSH1 0x20 DUP6 LT PUSH2 0x4F9 JUMPI JUMPDEST SWAP1 PUSH1 0x1F DUP6 SWAP5 SWAP4 SWAP3 ADD PUSH1 0x5 SHR ADD SWAP1 JUMPDEST DUP2 DUP2 LT PUSH2 0x4EA JUMPI POP PUSH2 0x20B JUMP JUMPDEST PUSH1 0x0 DUP2 SSTORE DUP5 SWAP4 POP PUSH1 0x1 ADD PUSH2 0x4DD JUMP JUMPDEST SWAP1 SWAP2 POP DUP2 SWAP1 PUSH2 0x4CF JUMP JUMPDEST PUSH1 0x40 MLOAD PUSH3 0x461BCD PUSH1 0xE5 SHL DUP2 MSTORE PUSH1 0x20 PUSH1 0x4 DUP3 ADD MSTORE PUSH1 0x25 PUSH1 0x24 DUP3 ADD MSTORE PUSH32 0x5265736F6C7574696F6E2074696D65206D75737420626520696E207468652066 PUSH1 0x44 DUP3 ADD MSTORE PUSH5 0x7574757265 PUSH1 0xD8 SHL PUSH1 0x64 DUP3 ADD MSTORE PUSH1 0x84 SWAP1 REVERT JUMPDEST PUSH1 0x40 MLOAD PUSH3 0x461BCD PUSH1 0xE5 SHL DUP2 MSTORE PUSH1 0x20 PUSH1 0x4 DUP3 ADD MSTORE PUSH1 0x1B PUSH1 0x24 DUP3 ADD MSTORE PUSH32 0x4465736372697074696F6E2063616E6E6F7420626520656D7074790000000000 PUSH1 0x44 DUP3 ADD MSTORE PUSH1 0x64 SWAP1 REVERT JUMPDEST PUSH1 0x40 MLOAD PUSH3 0x461BCD PUSH1 0xE5 SHL DUP2 MSTORE PUSH1 0x20 PUSH1 0x4 DUP3 ADD MSTORE PUSH1 0x15 PUSH1 0x24 DUP3 ADD MSTORE PUSH21 0x5469746C652063616E6E6F7420626520656D707479 PUSH1 0x58 SHL PUSH1 0x44 DUP3 ADD MSTORE PUSH1 0x64 SWAP1 REVERT JUMPDEST PUSH1 0x0 DUP1 REVERT JUMPDEST CALLVALUE PUSH2 0x5D8 JUMPI PUSH1 0x40 CALLDATASIZE PUSH1 0x3 NOT ADD SLT PUSH2 0x5D8 JUMPI PUSH1 0x4 CALLDATALOAD PUSH2 0x5F9 PUSH2 0xF5B JUMP JUMPDEST PUSH1 0x0 SWAP1 ISZERO PUSH2 0x69B JUMPI POP PUSH1 0x0 MSTORE PUSH1 0x4 PUSH1 0x20 MSTORE PUSH1 0x40 PUSH1 0x0 KECCAK256 JUMPDEST PUSH1 0x40 MLOAD DUP1 PUSH1 0x20 DUP4 SLOAD SWAP2 DUP3 DUP2 MSTORE ADD SWAP1 DUP2 SWAP4 PUSH1 0x0 MSTORE PUSH1 0x20 PUSH1 0x0 KECCAK256 SWAP1 PUSH1 0x0 JUMPDEST DUP2 DUP2 LT PUSH2 0x685 JUMPI POP POP POP DUP2 PUSH2 0x642 SWAP2 SUB DUP3 PUSH2 0xFE8 JUMP JUMPDEST PUSH1 0x40 MLOAD SWAP2 DUP3 SWAP2 PUSH1 0x20 DUP4 ADD SWAP1 PUSH1 0x20 DUP5 MSTORE MLOAD DUP1 SWAP2 MSTORE PUSH1 0x40 DUP4 ADD SWAP2 SWAP1 PUSH1 0x0 JUMPDEST DUP2 DUP2 LT PUSH2 0x66C JUMPI POP POP POP SUB SWAP1 RETURN JUMPDEST DUP3 MLOAD DUP5 MSTORE DUP6 SWAP5 POP PUSH1 0x20 SWAP4 DUP5 ADD SWAP4 SWAP1 SWAP3 ADD SWAP2 PUSH1 0x1 ADD PUSH2 0x65E JUMP JUMPDEST DUP3 SLOAD DUP5 MSTORE PUSH1 0x20 SWAP1 SWAP4 ADD SWAP3 PUSH1 0x1 SWAP3 DUP4 ADD SWAP3 ADD PUSH2 0x62C JUMP JUMPDEST PUSH1 0x40 SWAP2 DUP2 MSTORE PUSH1 0x5 PUSH1 0x20 MSTORE KECCAK256 PUSH2 0x610 JUMP JUMPDEST CALLVALUE PUSH2 0x5D8 JUMPI PUSH1 0x0 CALLDATASIZE PUSH1 0x3 NOT ADD SLT PUSH2 0x5D8 JUMPI PUSH1 0x20 PUSH1 0x0 SLOAD PUSH1 0x40 MLOAD SWAP1 DUP2 MSTORE RETURN JUMPDEST CALLVALUE PUSH2 0x5D8 JUMPI PUSH1 0x20 CALLDATASIZE PUSH1 0x3 NOT ADD SLT PUSH2 0x5D8 JUMPI PUSH1 0x4 CALLDATALOAD PUSH1 0x0 MSTORE PUSH1 0x3 PUSH1 0x20 MSTORE PUSH1 0xE0 PUSH1 0x40 PUSH1 0x0 KECCAK256 PUSH1 0x1 DUP1 PUSH1 0xA0 SHL SUB PUSH1 0x1 DUP3 ADD SLOAD AND SWAP1 PUSH1 0x2 DUP2 ADD SLOAD SWAP1 PUSH1 0xFF PUSH1 0x3 DUP3 ADD SLOAD AND PUSH1 0x4 DUP3 ADD SLOAD PUSH1 0x5 DUP4 ADD SLOAD SWAP2 PUSH1 0xFF PUSH1 0x7 PUSH1 0x6 DUP7 ADD SLOAD SWAP6 ADD SLOAD AND SWAP5 PUSH1 0x40 MLOAD SWAP7 DUP8 MSTORE PUSH1 0x20 DUP8 ADD MSTORE ISZERO ISZERO PUSH1 0x40 DUP7 ADD MSTORE PUSH1 0x60 DUP6 ADD MSTORE PUSH1 0x80 DUP5 ADD MSTORE PUSH1 0xA0 DUP4 ADD MSTORE ISZERO ISZERO PUSH1 0xC0 DUP3 ADD MSTORE RETURN JUMPDEST PUSH1 0x80 CALLDATASIZE PUSH1 0x3 NOT ADD SLT PUSH2 0x5D8 JUMPI PUSH1 0x4 CALLDATALOAD PUSH2 0x762 PUSH2 0xF5B JUMP JUMPDEST SWAP1 PUSH1 0x44 CALLDATALOAD SWAP2 PUSH1 0x64 CALLDATALOAD DUP3 ISZERO ISZERO DUP1 PUSH2 0xA3D JUMPI JUMPDEST PUSH2 0x77C SWAP1 PUSH2 0x1146 JUMP JUMPDEST DUP3 PUSH1 0x0 MSTORE PUSH1 0x1 PUSH1 0x20 MSTORE PUSH2 0x79A PUSH1 0xFF PUSH1 0x7 PUSH1 0x40 PUSH1 0x0 KECCAK256 ADD SLOAD AND ISZERO PUSH2 0x11A6 JUMP JUMPDEST DUP4 ISZERO DUP1 ISZERO DUP1 PUSH2 0xA32 JUMPI JUMPDEST ISZERO PUSH2 0x9EE JUMPI CALLVALUE ISZERO PUSH2 0x9A9 JUMPI PUSH2 0x2710 CALLVALUE MUL SWAP1 CALLVALUE DUP3 DIV PUSH2 0x2710 SUB PUSH2 0x993 JUMPI PUSH2 0x97D JUMPI DUP5 SWAP1 DIV DUP2 ISZERO ISZERO DUP1 PUSH2 0x974 JUMPI JUMPDEST ISZERO PUSH2 0x96C JUMPI POP SWAP2 JUMPDEST PUSH2 0x7E3 PUSH1 0x2 SLOAD PUSH2 0x11F2 JUMP JUMPDEST SWAP4 DUP5 PUSH1 0x2 SSTORE PUSH1 0x40 MLOAD SWAP5 PUSH2 0x100 DUP7 ADD SWAP6 DUP1 DUP8 LT PUSH8 0xFFFFFFFFFFFFFFFF DUP9 GT OR PUSH2 0x42A JUMPI PUSH1 0x7 PUSH2 0x8CD SWAP3 PUSH2 0x940 SWAP9 PUSH1 0x40 MSTORE DUP1 DUP4 MSTORE PUSH1 0x20 DUP4 ADD CALLER DUP2 MSTORE PUSH1 0x40 DUP5 ADD DUP8 DUP2 MSTORE PUSH1 0x60 DUP6 ADD DUP10 ISZERO ISZERO DUP2 MSTORE PUSH2 0x8A5 PUSH1 0x80 DUP8 ADD SWAP2 DUP10 DUP4 MSTORE PUSH1 0xA0 DUP9 ADD SWAP4 DUP14 DUP6 MSTORE PUSH1 0xC0 DUP10 ADD SWAP6 PUSH1 0x0 DUP8 MSTORE PUSH1 0xE0 DUP11 ADD SWAP8 PUSH1 0x1 DUP10 MSTORE PUSH1 0x0 MSTORE PUSH1 0x3 PUSH1 0x20 MSTORE PUSH1 0x40 PUSH1 0x0 KECCAK256 SWAP10 MLOAD DUP11 SSTORE PUSH1 0x1 DUP11 ADD SWAP1 PUSH1 0x1 DUP1 PUSH1 0xA0 SHL SUB SWAP1 MLOAD AND PUSH12 0xFFFFFFFFFFFFFFFFFFFFFFFF PUSH1 0xA0 SHL DUP3 SLOAD AND OR SWAP1 SSTORE MLOAD PUSH1 0x2 DUP10 ADD SSTORE MLOAD ISZERO ISZERO PUSH1 0x3 DUP9 ADD SWAP1 PUSH1 0xFF DUP1 NOT DUP4 SLOAD AND SWAP2 ISZERO ISZERO AND OR SWAP1 SSTORE JUMP JUMPDEST MLOAD PUSH1 0x4 DUP7 ADD SSTORE MLOAD PUSH1 0x5 DUP6 ADD SSTORE MLOAD PUSH1 0x6 DUP5 ADD SSTORE MLOAD ISZERO ISZERO SWAP2 ADD SWAP1 PUSH1 0xFF DUP1 NOT DUP4 SLOAD AND SWAP2 ISZERO ISZERO AND OR SWAP1 SSTORE JUMP JUMPDEST DUP3 ISZERO PUSH2 0x94D JUMPI DUP2 PUSH1 0x0 MSTORE PUSH1 0x4 PUSH1 0x20 MSTORE PUSH2 0x8ED PUSH1 0x40 PUSH1 0x0 KECCAK256 PUSH1 0x2 SLOAD SWAP1 PUSH2 0x1201 JUMP JUMPDEST PUSH32 0xB3F56F4D6C2DEA5D6536E848DF8B950B9D0DA9D1D2A9E588B3D8CE6DD4333E22 PUSH1 0x2 SLOAD SWAP5 DUP6 SWAP3 PUSH2 0x938 PUSH1 0x40 MLOAD SWAP3 DUP4 SWAP3 CALLER SWAP9 DUP5 PUSH1 0x40 SWAP2 SWAP5 SWAP4 SWAP3 PUSH1 0x60 DUP3 ADD SWAP6 ISZERO ISZERO DUP3 MSTORE PUSH1 0x20 DUP3 ADD MSTORE ADD MSTORE JUMP JUMPDEST SUB SWAP1 LOG4 PUSH2 0x1248 JUMP JUMPDEST PUSH1 0x20 PUSH1 0x2 SLOAD PUSH1 0x40 MLOAD SWAP1 DUP2 MSTORE RETURN JUMPDEST DUP2 PUSH1 0x0 MSTORE PUSH1 0x5 PUSH1 0x20 MSTORE PUSH2 0x967 PUSH1 0x40 PUSH1 0x0 KECCAK256 PUSH1 0x2 SLOAD SWAP1 PUSH2 0x1201 JUMP JUMPDEST PUSH2 0x8ED JUMP JUMPDEST SWAP1 POP SWAP2 PUSH2 0x7D8 JUMP JUMPDEST POP DUP1 DUP3 LT PUSH2 0x7D0 JUMP JUMPDEST PUSH4 0x4E487B71 PUSH1 0xE0 SHL PUSH1 0x0 MSTORE PUSH1 0x12 PUSH1 0x4 MSTORE PUSH1 0x24 PUSH1 0x0 REVERT JUMPDEST PUSH4 0x4E487B71 PUSH1 0xE0 SHL PUSH1 0x0 MSTORE PUSH1 0x11 PUSH1 0x4 MSTORE PUSH1 0x24 PUSH1 0x0 REVERT JUMPDEST PUSH1 0x40 MLOAD PUSH3 0x461BCD PUSH1 0xE5 SHL DUP2 MSTORE PUSH1 0x20 PUSH1 0x4 DUP3 ADD MSTORE PUSH1 0x1C PUSH1 0x24 DUP3 ADD MSTORE PUSH32 0x4D7573742073656E642045544820746F20706C616365206F7264657200000000 PUSH1 0x44 DUP3 ADD MSTORE PUSH1 0x64 SWAP1 REVERT JUMPDEST PUSH1 0x64 PUSH1 0x40 MLOAD PUSH3 0x461BCD PUSH1 0xE5 SHL DUP2 MSTORE PUSH1 0x20 PUSH1 0x4 DUP3 ADD MSTORE PUSH1 0x20 PUSH1 0x24 DUP3 ADD MSTORE PUSH32 0x5072696365206D757374206265206265747765656E203020616E642031303025 PUSH1 0x44 DUP3 ADD MSTORE REVERT JUMPDEST POP PUSH2 0x2710 DUP6 LT PUSH2 0x7A4 JUMP JUMPDEST POP PUSH1 0x0 SLOAD DUP4 GT ISZERO PUSH2 0x773 JUMP JUMPDEST CALLVALUE PUSH2 0x5D8 JUMPI PUSH1 0x20 CALLDATASIZE PUSH1 0x3 NOT ADD SLT PUSH2 0x5D8 JUMPI PUSH1 0x4 CALLDATALOAD PUSH1 0x0 MSTORE PUSH1 0x1 PUSH1 0x20 MSTORE PUSH1 0x40 PUSH1 0x0 KECCAK256 DUP1 SLOAD PUSH2 0xA78 PUSH1 0x1 DUP4 ADD PUSH2 0x100A JUMP JUMPDEST SWAP2 PUSH2 0xA85 PUSH1 0x2 DUP3 ADD PUSH2 0x100A JUMP JUMPDEST PUSH1 0x3 DUP3 ADD SLOAD SWAP2 PUSH1 0x4 DUP2 ADD SLOAD PUSH1 0x5 DUP3 ADD SLOAD PUSH1 0x6 DUP4 ADD SLOAD SWAP1 PUSH1 0x7 DUP5 ADD SLOAD SWAP3 PUSH2 0xADB PUSH1 0x9 PUSH1 0x8 DUP8 ADD SLOAD SWAP7 ADD SLOAD SWAP7 PUSH2 0xACD PUSH1 0x40 MLOAD SWAP12 DUP13 SWAP12 DUP13 MSTORE PUSH2 0x180 PUSH1 0x20 DUP14 ADD MSTORE PUSH2 0x180 DUP13 ADD SWAP1 PUSH2 0x10AE JUMP JUMPDEST SWAP1 DUP11 DUP3 SUB PUSH1 0x40 DUP13 ADD MSTORE PUSH2 0x10AE JUMP JUMPDEST PUSH1 0x60 DUP10 ADD SWAP8 SWAP1 SWAP8 MSTORE PUSH1 0x80 DUP9 ADD MSTORE PUSH1 0xA0 DUP8 ADD MSTORE PUSH1 0xC0 DUP7 ADD MSTORE PUSH1 0xFF DUP2 DUP2 AND ISZERO ISZERO PUSH1 0xE0 DUP8 ADD MSTORE PUSH1 0x8 DUP3 SWAP1 SHR AND ISZERO ISZERO PUSH2 0x100 DUP7 ADD MSTORE PUSH1 0x10 SHR PUSH1 0x1 PUSH1 0x1 PUSH1 0xA0 SHL SUB AND PUSH2 0x120 DUP6 ADD MSTORE PUSH2 0x140 DUP5 ADD MSTORE PUSH2 0x160 DUP4 ADD MSTORE SUB SWAP1 RETURN JUMPDEST CALLVALUE PUSH2 0x5D8 JUMPI PUSH1 0x20 CALLDATASIZE PUSH1 0x3 NOT ADD SLT PUSH2 0x5D8 JUMPI PUSH1 0x4 CALLDATALOAD PUSH1 0x0 MSTORE PUSH1 0x3 PUSH1 0x20 MSTORE PUSH2 0x100 PUSH1 0x40 PUSH1 0x0 KECCAK256 DUP1 SLOAD SWAP1 PUSH1 0x1 DUP1 PUSH1 0xA0 SHL SUB PUSH1 0x1 DUP3 ADD SLOAD AND SWAP1 PUSH1 0x2 DUP2 ADD SLOAD PUSH1 0xFF PUSH1 0x3 DUP4 ADD SLOAD AND PUSH1 0x4 DUP4 ADD SLOAD SWAP1 PUSH1 0x5 DUP5 ADD SLOAD SWAP3 PUSH1 0xFF PUSH1 0x7 PUSH1 0x6 DUP8 ADD SLOAD SWAP7 ADD SLOAD AND SWAP6 PUSH1 0x40 MLOAD SWAP8 DUP9 MSTORE PUSH1 0x20 DUP9 ADD MSTORE PUSH1 0x40 DUP8 ADD MSTORE ISZERO ISZERO PUSH1 0x60 DUP7 ADD MSTORE PUSH1 0x80 DUP6 ADD MSTORE PUSH1 0xA0 DUP5 ADD MSTORE PUSH1 0xC0 DUP4 ADD MSTORE ISZERO ISZERO PUSH1 0xE0 DUP3 ADD MSTORE RETURN JUMPDEST CALLVALUE PUSH2 0x5D8 JUMPI PUSH2 0xBC7 CALLDATASIZE PUSH2 0xF6A JUMP JUMPDEST SWAP1 PUSH1 0x0 MSTORE PUSH1 0x4 PUSH1 0x20 MSTORE PUSH1 0x40 PUSH1 0x0 KECCAK256 DUP1 SLOAD DUP3 LT ISZERO PUSH2 0x5D8 JUMPI PUSH1 0x20 SWAP2 PUSH2 0xBEA SWAP2 PUSH2 0xF80 JUMP JUMPDEST SWAP1 SLOAD SWAP1 PUSH1 0x3 SHL SHR PUSH1 0x40 MLOAD SWAP1 DUP2 MSTORE RETURN JUMPDEST CALLVALUE PUSH2 0x5D8 JUMPI PUSH1 0x20 CALLDATASIZE PUSH1 0x3 NOT ADD SLT PUSH2 0x5D8 JUMPI PUSH1 0x4 CALLDATALOAD DUP1 ISZERO ISZERO DUP1 PUSH2 0xC43 JUMPI JUMPDEST PUSH2 0xC1F SWAP1 PUSH2 0x1146 JUMP JUMPDEST PUSH1 0x0 MSTORE PUSH1 0x1 PUSH1 0x20 MSTORE PUSH1 0x40 DUP1 PUSH1 0x0 KECCAK256 PUSH1 0x4 PUSH1 0x3 DUP3 ADD SLOAD SWAP2 ADD SLOAD DUP3 MLOAD SWAP2 DUP3 MSTORE PUSH1 0x20 DUP3 ADD MSTORE RETURN JUMPDEST POP PUSH1 0x0 SLOAD DUP2 GT ISZERO PUSH2 0xC16 JUMP JUMPDEST CALLVALUE PUSH2 0x5D8 JUMPI PUSH2 0xC5D CALLDATASIZE PUSH2 0xF6A JUMP JUMPDEST SWAP1 PUSH1 0x0 MSTORE PUSH1 0x5 PUSH1 0x20 MSTORE PUSH1 0x40 PUSH1 0x0 KECCAK256 DUP1 SLOAD DUP3 LT ISZERO PUSH2 0x5D8 JUMPI PUSH1 0x20 SWAP2 PUSH2 0xBEA SWAP2 PUSH2 0xF80 JUMP JUMPDEST CALLVALUE PUSH2 0x5D8 JUMPI PUSH2 0xC8E CALLDATASIZE PUSH2 0xF35 JUMP JUMPDEST SWAP1 PUSH1 0x1 DUP1 PUSH1 0xA0 SHL SUB AND PUSH1 0x0 MSTORE PUSH1 0x6 PUSH1 0x20 MSTORE PUSH1 0x40 PUSH1 0x0 KECCAK256 SWAP1 PUSH1 0x0 MSTORE PUSH1 0x20 MSTORE PUSH1 0x40 DUP1 PUSH1 0x0 KECCAK256 PUSH1 0x1 DUP2 SLOAD SWAP2 ADD SLOAD DUP3 MLOAD SWAP2 DUP3 MSTORE PUSH1 0x20 DUP3 ADD MSTORE RETURN JUMPDEST CALLVALUE PUSH2 0x5D8 JUMPI PUSH1 0x40 CALLDATASIZE PUSH1 0x3 NOT ADD SLT PUSH2 0x5D8 JUMPI PUSH1 0x4 CALLDATALOAD PUSH32 0x4927FE38919783250023D27E65A3E56B6B5C3E49364E51674A41EF08D62460D9 PUSH1 0x20 PUSH2 0xD03 PUSH2 0xF5B JUMP JUMPDEST DUP4 ISZERO ISZERO DUP1 PUSH2 0xD79 JUMPI JUMPDEST PUSH2 0xD15 SWAP1 PUSH2 0x1146 JUMP JUMPDEST DUP4 PUSH1 0x0 MSTORE PUSH1 0x1 DUP3 MSTORE PUSH2 0xD32 PUSH1 0xFF PUSH1 0x7 PUSH1 0x40 PUSH1 0x0 KECCAK256 ADD SLOAD AND ISZERO PUSH2 0x11A6 JUMP JUMPDEST PUSH1 0x0 DUP5 DUP2 MSTORE PUSH1 0x1 DUP1 DUP5 MSTORE PUSH1 0x40 DUP1 DUP4 KECCAK256 PUSH1 0x7 SWAP1 DUP2 ADD DUP1 SLOAD PUSH1 0xFF NOT AND DUP5 OR SWAP1 SSTORE DUP8 DUP5 MSTORE SWAP2 DUP6 MSTORE SWAP1 SWAP2 KECCAK256 ADD DUP1 SLOAD PUSH2 0xFF00 NOT AND DUP3 ISZERO ISZERO PUSH1 0x8 SHL PUSH2 0xFF00 AND OR SWAP1 SSTORE PUSH1 0x40 MLOAD SWAP1 ISZERO ISZERO DUP2 MSTORE LOG2 STOP JUMPDEST POP PUSH1 0x0 SLOAD DUP5 GT ISZERO PUSH2 0xD0C JUMP JUMPDEST CALLVALUE PUSH2 0x5D8 JUMPI PUSH1 0x20 CALLDATASIZE PUSH1 0x3 NOT ADD SLT PUSH2 0x5D8 JUMPI PUSH1 0x4 CALLDATALOAD PUSH1 0x0 DUP2 DUP2 MSTORE PUSH1 0x3 PUSH1 0x20 MSTORE PUSH1 0x40 SWAP1 KECCAK256 PUSH1 0x1 DUP2 ADD SLOAD PUSH1 0x1 PUSH1 0x1 PUSH1 0xA0 SHL SUB AND CALLER SUB PUSH2 0xE94 JUMPI PUSH1 0x7 DUP2 ADD SWAP1 DUP2 SLOAD SWAP1 PUSH1 0xFF DUP3 AND ISZERO PUSH2 0xE5C JUMPI PUSH2 0x2710 SWAP3 PUSH2 0xDF8 SWAP3 PUSH1 0xFF NOT AND SWAP1 SSTORE PUSH1 0x4 PUSH2 0xDEF PUSH1 0x5 DUP4 ADD SLOAD PUSH1 0x6 DUP5 ADD SLOAD SWAP1 PUSH2 0x1186 JUMP JUMPDEST SWAP2 ADD SLOAD SWAP1 PUSH2 0x1193 JUMP JUMPDEST DIV DUP1 ISZERO DUP1 ISZERO PUSH2 0xE2A JUMPI JUMPDEST DUP3 PUSH32 0x61B9399F2F0F32CA39CE8D7BE32CAED5EC22FE07A6DABA3A467ED479EC606582 PUSH1 0x0 DUP1 LOG2 STOP JUMPDEST PUSH1 0x0 DUP1 DUP1 SWAP4 DUP2 SWAP4 DUP3 SWAP1 PUSH2 0xE53 JUMPI JUMPDEST CALLER SWAP1 CALL ISZERO PUSH2 0xE47 JUMPI DUP2 DUP1 PUSH2 0xE02 JUMP JUMPDEST PUSH1 0x40 MLOAD RETURNDATASIZE PUSH1 0x0 DUP3 RETURNDATACOPY RETURNDATASIZE SWAP1 REVERT JUMPDEST POP PUSH2 0x8FC PUSH2 0xE38 JUMP JUMPDEST PUSH1 0x40 MLOAD PUSH3 0x461BCD PUSH1 0xE5 SHL DUP2 MSTORE PUSH1 0x20 PUSH1 0x4 DUP3 ADD MSTORE PUSH1 0x10 PUSH1 0x24 DUP3 ADD MSTORE PUSH16 0x4F72646572206E6F7420616374697665 PUSH1 0x80 SHL PUSH1 0x44 DUP3 ADD MSTORE PUSH1 0x64 SWAP1 REVERT JUMPDEST PUSH1 0x40 MLOAD PUSH3 0x461BCD PUSH1 0xE5 SHL DUP2 MSTORE PUSH1 0x20 PUSH1 0x4 DUP3 ADD MSTORE PUSH1 0xE PUSH1 0x24 DUP3 ADD MSTORE PUSH14 0x2737BA103CB7BAB91037B93232B9 PUSH1 0x91 SHL PUSH1 0x44 DUP3 ADD MSTORE PUSH1 0x64 SWAP1 REVERT JUMPDEST CALLVALUE PUSH2 0x5D8 JUMPI PUSH1 0x0 CALLDATASIZE PUSH1 0x3 NOT ADD SLT PUSH2 0x5D8 JUMPI PUSH1 0x20 PUSH1 0x2 SLOAD PUSH1 0x40 MLOAD SWAP1 DUP2 MSTORE RETURN JUMPDEST CALLVALUE PUSH2 0x5D8 JUMPI PUSH1 0x20 CALLDATASIZE PUSH1 0x3 NOT ADD SLT PUSH2 0x5D8 JUMPI PUSH1 0x4 CALLDATALOAD DUP1 ISZERO ISZERO DUP1 PUSH2 0xF29 JUMPI JUMPDEST PUSH2 0xF0E SWAP1 PUSH2 0x1146 JUMP JUMPDEST PUSH1 0x0 MSTORE PUSH1 0x1 PUSH1 0x20 MSTORE PUSH1 0x20 PUSH1 0x5 PUSH1 0x40 PUSH1 0x0 KECCAK256 ADD SLOAD PUSH1 0x40 MLOAD SWAP1 DUP2 MSTORE RETURN JUMPDEST POP PUSH1 0x0 SLOAD DUP2 GT ISZERO PUSH2 0xF05 JUMP JUMPDEST PUSH1 0x40 SWAP1 PUSH1 0x3 NOT ADD SLT PUSH2 0x5D8 JUMPI PUSH1 0x4 CALLDATALOAD PUSH1 0x1 PUSH1 0x1 PUSH1 0xA0 SHL SUB DUP2 AND DUP2 SUB PUSH2 0x5D8 JUMPI SWAP1 PUSH1 0x24 CALLDATALOAD SWAP1 JUMP JUMPDEST PUSH1 0x24 CALLDATALOAD SWAP1 DUP2 ISZERO ISZERO DUP3 SUB PUSH2 0x5D8 JUMPI JUMP JUMPDEST PUSH1 0x40 SWAP1 PUSH1 0x3 NOT ADD SLT PUSH2 0x5D8 JUMPI PUSH1 0x4 CALLDATALOAD SWAP1 PUSH1 0x24 CALLDATALOAD SWAP1 JUMP JUMPDEST DUP1 SLOAD DUP3 LT ISZERO PUSH2 0xF98 JUMPI PUSH1 0x0 MSTORE PUSH1 0x20 PUSH1 0x0 KECCAK256 ADD SWAP1 PUSH1 0x0 SWAP1 JUMP JUMPDEST PUSH4 0x4E487B71 PUSH1 0xE0 SHL PUSH1 0x0 MSTORE PUSH1 0x32 PUSH1 0x4 MSTORE PUSH1 0x24 PUSH1 0x0 REVERT JUMPDEST SWAP1 PUSH1 0x1 DUP3 DUP2 SHR SWAP3 AND DUP1 ISZERO PUSH2 0xFDE JUMPI JUMPDEST PUSH1 0x20 DUP4 LT EQ PUSH2 0xFC8 JUMPI JUMP JUMPDEST PUSH4 0x4E487B71 PUSH1 0xE0 SHL PUSH1 0x0 MSTORE PUSH1 0x22 PUSH1 0x4 MSTORE PUSH1 0x24 PUSH1 0x0 REVERT JUMPDEST SWAP2 PUSH1 0x7F AND SWAP2 PUSH2 0xFBD JUMP JUMPDEST SWAP1 PUSH1 0x1F DUP1 NOT SWAP2 ADD AND DUP2 ADD SWAP1 DUP2 LT PUSH8 0xFFFFFFFFFFFFFFFF DUP3 GT OR PUSH2 0x42A JUMPI PUSH1 0x40 MSTORE JUMP JUMPDEST SWAP1 PUSH1 0x40 MLOAD SWAP2 DUP3 PUSH1 0x0 DUP3 SLOAD SWAP3 PUSH2 0x101E DUP5 PUSH2 0xFAE JUMP JUMPDEST DUP1 DUP5 MSTORE SWAP4 PUSH1 0x1 DUP2 AND SWAP1 DUP2 ISZERO PUSH2 0x108C JUMPI POP PUSH1 0x1 EQ PUSH2 0x1045 JUMPI JUMPDEST POP PUSH2 0x1043 SWAP3 POP SUB DUP4 PUSH2 0xFE8 JUMP JUMPDEST JUMP JUMPDEST SWAP1 POP PUSH1 0x0 SWAP3 SWAP2 SWAP3 MSTORE PUSH1 0x20 PUSH1 0x0 KECCAK256 SWAP1 PUSH1 0x0 SWAP2 JUMPDEST DUP2 DUP4 LT PUSH2 0x1070 JUMPI POP POP SWAP1 PUSH1 0x20 PUSH2 0x1043 SWAP3 DUP3 ADD ADD CODESIZE PUSH2 0x1036 JUMP JUMPDEST PUSH1 0x20 SWAP2 SWAP4 POP DUP1 PUSH1 0x1 SWAP2 SLOAD DUP4 DUP6 DUP10 ADD ADD MSTORE ADD SWAP2 ADD SWAP1 SWAP2 DUP5 SWAP3 PUSH2 0x1057 JUMP JUMPDEST SWAP1 POP PUSH1 0x20 SWAP3 POP PUSH2 0x1043 SWAP5 SWAP2 POP PUSH1 0xFF NOT AND DUP3 DUP5 ADD MSTORE ISZERO ISZERO PUSH1 0x5 SHL DUP3 ADD ADD CODESIZE PUSH2 0x1036 JUMP JUMPDEST SWAP2 SWAP1 DUP3 MLOAD SWAP3 DUP4 DUP3 MSTORE PUSH1 0x0 JUMPDEST DUP5 DUP2 LT PUSH2 0x10DA JUMPI POP POP DUP3 PUSH1 0x0 PUSH1 0x20 DUP1 SWAP5 SWAP6 DUP5 ADD ADD MSTORE PUSH1 0x1F DUP1 NOT SWAP2 ADD AND ADD ADD SWAP1 JUMP JUMPDEST DUP1 PUSH1 0x20 DUP1 SWAP3 DUP5 ADD ADD MLOAD DUP3 DUP3 DUP7 ADD ADD MSTORE ADD PUSH2 0x10B9 JUMP JUMPDEST DUP2 PUSH1 0x1F DUP3 ADD SLT ISZERO PUSH2 0x5D8 JUMPI DUP1 CALLDATALOAD SWAP1 PUSH8 0xFFFFFFFFFFFFFFFF DUP3 GT PUSH2 0x42A JUMPI PUSH1 0x40 MLOAD SWAP3 PUSH2 0x1124 PUSH1 0x1F DUP5 ADD PUSH1 0x1F NOT AND PUSH1 0x20 ADD DUP6 PUSH2 0xFE8 JUMP JUMPDEST DUP3 DUP5 MSTORE PUSH1 0x20 DUP4 DUP4 ADD ADD GT PUSH2 0x5D8 JUMPI DUP2 PUSH1 0x0 SWAP3 PUSH1 0x20 DUP1 SWAP4 ADD DUP4 DUP7 ADD CALLDATACOPY DUP4 ADD ADD MSTORE SWAP1 JUMP JUMPDEST ISZERO PUSH2 0x114D JUMPI JUMP JUMPDEST PUSH1 0x40 MLOAD PUSH3 0x461BCD PUSH1 0xE5 SHL DUP2 MSTORE PUSH1 0x20 PUSH1 0x4 DUP3 ADD MSTORE PUSH1 0x11 PUSH1 0x24 DUP3 ADD MSTORE PUSH17 0x125B9D985B1A59081B585C9AD95D081251 PUSH1 0x7A SHL PUSH1 0x44 DUP3 ADD MSTORE PUSH1 0x64 SWAP1 REVERT JUMPDEST SWAP2 SWAP1 DUP3 SUB SWAP2 DUP3 GT PUSH2 0x993 JUMPI JUMP JUMPDEST DUP2 DUP2 MUL SWAP3 SWAP2 DUP2 ISZERO SWAP2 DUP5 DIV EQ OR ISZERO PUSH2 0x993 JUMPI JUMP JUMPDEST ISZERO PUSH2 0x11AD JUMPI JUMP JUMPDEST PUSH1 0x40 MLOAD PUSH3 0x461BCD PUSH1 0xE5 SHL DUP2 MSTORE PUSH1 0x20 PUSH1 0x4 DUP3 ADD MSTORE PUSH1 0x17 PUSH1 0x24 DUP3 ADD MSTORE PUSH32 0x4D61726B657420616C7265616479207265736F6C766564000000000000000000 PUSH1 0x44 DUP3 ADD MSTORE PUSH1 0x64 SWAP1 REVERT JUMPDEST PUSH1 0x0 NOT DUP2 EQ PUSH2 0x993 JUMPI PUSH1 0x1 ADD SWAP1 JUMP JUMPDEST DUP1 SLOAD PUSH9 0x10000000000000000 DUP2 LT ISZERO PUSH2 0x42A JUMPI PUSH2 0x1223 SWAP2 PUSH1 0x1 DUP3 ADD DUP2 SSTORE PUSH2 0xF80 JUMP JUMPDEST DUP2 SWAP3 SWAP2 SLOAD SWAP1 PUSH1 0x3 SHL SWAP2 DUP3 SHL SWAP2 PUSH1 0x0 NOT SWAP1 SHL NOT AND OR SWAP1 SSTORE JUMP JUMPDEST SWAP2 SWAP1 DUP3 ADD DUP1 SWAP3 GT PUSH2 0x993 JUMPI JUMP JUMPDEST PUSH1 0x0 MSTORE PUSH1 0x3 PUSH1 0x20 MSTORE PUSH1 0x40 PUSH1 0x0 KECCAK256 SWAP1 PUSH1 0x7 DUP3 ADD SWAP1 PUSH1 0xFF DUP3 SLOAD AND ISZERO DUP1 ISZERO PUSH2 0x15BC JUMPI JUMPDEST PUSH2 0x15B7 JUMPI PUSH1 0x2 DUP4 ADD SLOAD SWAP1 PUSH1 0xFF PUSH1 0x3 DUP6 ADD SLOAD AND SWAP1 PUSH1 0x0 DUP3 PUSH1 0x0 EQ PUSH2 0x15A5 JUMPI POP DUP3 PUSH1 0x0 MSTORE PUSH1 0x5 PUSH1 0x20 MSTORE PUSH1 0x40 PUSH1 0x0 KECCAK256 SWAP1 JUMPDEST PUSH1 0x0 JUMPDEST DUP3 SLOAD DUP2 LT DUP1 PUSH2 0x1594 JUMPI JUMPDEST ISZERO PUSH2 0x1571 JUMPI PUSH2 0x12B2 DUP2 DUP5 PUSH2 0xF80 JUMP JUMPDEST SWAP1 SLOAD SWAP1 PUSH1 0x3 SHL SHR PUSH1 0x0 MSTORE PUSH1 0x3 PUSH1 0x20 MSTORE PUSH1 0x40 PUSH1 0x0 KECCAK256 SWAP1 PUSH1 0xFF PUSH1 0x7 DUP4 ADD SLOAD AND ISZERO DUP1 ISZERO PUSH2 0x155F JUMPI JUMPDEST PUSH2 0x12F8 JUMPI PUSH2 0x2710 PUSH2 0x12F1 PUSH1 0x4 DUP11 ADD SLOAD PUSH1 0x4 DUP6 ADD SLOAD SWAP1 PUSH2 0x123B JUMP JUMPDEST GT ISZERO PUSH2 0x1307 JUMPI JUMPDEST PUSH2 0x1302 SWAP2 POP PUSH2 0x11F2 JUMP JUMPDEST PUSH2 0x1299 JUMP JUMPDEST PUSH1 0x5 DUP9 ADD SLOAD SWAP2 PUSH1 0x6 DUP10 ADD PUSH2 0x1343 PUSH2 0x1320 DUP3 SLOAD DUP1 SWAP7 PUSH2 0x1186 JUMP JUMPDEST PUSH2 0x1333 PUSH1 0x5 DUP6 ADD SLOAD PUSH1 0x6 DUP7 ADD SLOAD SWAP1 PUSH2 0x1186 JUMP JUMPDEST DUP1 DUP3 LT ISZERO PUSH2 0x1556 JUMPI POP DUP1 SWAP6 PUSH2 0x123B JUMP JUMPDEST SWAP1 SSTORE PUSH2 0x1353 DUP4 PUSH1 0x6 DUP4 ADD SLOAD PUSH2 0x123B JUMP JUMPDEST PUSH1 0x6 DUP3 ADD SSTORE PUSH1 0x1 DUP1 PUSH1 0xA0 SHL SUB PUSH1 0x1 DUP11 ADD SLOAD AND PUSH1 0x0 MSTORE PUSH1 0x6 PUSH1 0x20 MSTORE PUSH1 0x40 PUSH1 0x0 KECCAK256 DUP8 PUSH1 0x0 MSTORE PUSH1 0x20 MSTORE PUSH1 0x40 PUSH1 0x0 KECCAK256 PUSH1 0x1 DUP1 PUSH1 0xA0 SHL SUB PUSH1 0x1 DUP4 ADD SLOAD AND PUSH1 0x0 MSTORE PUSH1 0x6 PUSH1 0x20 MSTORE PUSH1 0x40 PUSH1 0x0 KECCAK256 DUP9 PUSH1 0x0 MSTORE PUSH1 0x20 MSTORE PUSH1 0x40 PUSH1 0x0 KECCAK256 SWAP1 DUP8 PUSH1 0x0 EQ PUSH2 0x1534 JUMPI SWAP1 DUP2 PUSH2 0x13BC DUP7 PUSH1 0x1 SWAP5 SLOAD PUSH2 0x123B JUMP JUMPDEST SWAP1 SSTORE ADD PUSH2 0x13CA DUP5 DUP3 SLOAD PUSH2 0x123B JUMP JUMPDEST SWAP1 SSTORE JUMPDEST DUP7 PUSH1 0x0 MSTORE PUSH1 0x1 PUSH1 0x20 MSTORE PUSH1 0x40 PUSH1 0x0 KECCAK256 SWAP3 PUSH2 0x2710 PUSH2 0x13FB PUSH2 0x13F5 PUSH1 0x4 DUP14 ADD SLOAD PUSH1 0x4 DUP7 ADD SLOAD SWAP1 PUSH2 0x123B JUMP JUMPDEST DUP4 PUSH2 0x1193 JUMP JUMPDEST DIV PUSH2 0x140B PUSH1 0x6 DUP7 ADD SWAP2 DUP3 SLOAD PUSH2 0x123B JUMP JUMPDEST SWAP1 SSTORE DUP7 ISZERO PUSH2 0x150B JUMPI PUSH1 0x4 DUP11 ADD SLOAD SWAP4 DUP5 PUSH1 0x3 DUP3 ADD SSTORE PUSH2 0x2710 DUP6 DUP2 SUB GT PUSH2 0x993 JUMPI PUSH1 0x4 PUSH2 0x1302 SWAP6 PUSH2 0x2710 SUB SWAP2 ADD SSTORE JUMPDEST DUP10 SLOAD PUSH1 0x1 DUP12 ADD SLOAD PUSH1 0x4 DUP13 ADD SLOAD PUSH1 0x40 DUP1 MLOAD DUP12 ISZERO ISZERO DUP2 MSTORE PUSH1 0x20 DUP2 ADD SWAP3 SWAP1 SWAP3 MSTORE DUP2 ADD DUP5 SWAP1 MSTORE PUSH1 0x1 PUSH1 0x1 PUSH1 0xA0 SHL SUB SWAP1 SWAP2 AND SWAP2 DUP11 SWAP2 PUSH32 0xE5E1F82F95EAAD8B51715234CFFB8A81D56B2A3F64EBD9C7F2AB7841E4053DFC SWAP1 PUSH1 0x60 SWAP1 LOG4 DUP2 SLOAD PUSH1 0x1 DUP4 ADD SLOAD PUSH1 0x4 DUP5 ADD SLOAD PUSH1 0x40 DUP1 MLOAD DUP12 ISZERO DUP2 MSTORE PUSH1 0x20 DUP2 ADD SWAP3 SWAP1 SWAP3 MSTORE DUP2 ADD SWAP4 SWAP1 SWAP4 MSTORE PUSH1 0x1 PUSH1 0x1 PUSH1 0xA0 SHL SUB AND SWAP2 DUP10 SWAP2 SWAP1 PUSH32 0xE5E1F82F95EAAD8B51715234CFFB8A81D56B2A3F64EBD9C7F2AB7841E4053DFC SWAP1 PUSH1 0x60 SWAP1 LOG4 PUSH1 0x6 DUP2 ADD SLOAD PUSH1 0x5 DUP3 ADD SLOAD GT ISZERO PUSH2 0x14FA JUMPI JUMPDEST POP PUSH2 0x12F8 JUMP JUMPDEST PUSH1 0x7 ADD DUP1 SLOAD PUSH1 0xFF NOT AND SWAP1 SSTORE CODESIZE PUSH2 0x14F4 JUMP JUMPDEST PUSH1 0x4 DUP11 ADD SLOAD SWAP4 DUP5 PUSH1 0x4 DUP3 ADD SSTORE PUSH2 0x2710 DUP6 DUP2 SUB GT PUSH2 0x993 JUMPI PUSH1 0x3 PUSH2 0x1302 SWAP6 PUSH2 0x2710 SUB SWAP2 ADD SSTORE PUSH2 0x1438 JUMP JUMPDEST PUSH1 0x1 ADD PUSH2 0x1542 DUP6 DUP3 SLOAD PUSH2 0x123B JUMP JUMPDEST SWAP1 SSTORE PUSH2 0x154F DUP5 DUP3 SLOAD PUSH2 0x123B JUMP JUMPDEST SWAP1 SSTORE PUSH2 0x13CD JUMP JUMPDEST SWAP1 POP DUP1 SWAP6 PUSH2 0x123B JUMP JUMPDEST POP PUSH1 0x6 DUP3 ADD SLOAD PUSH1 0x5 DUP4 ADD SLOAD GT ISZERO PUSH2 0x12D7 JUMP JUMPDEST POP SWAP5 SWAP3 POP POP POP PUSH1 0x5 PUSH1 0x6 DUP3 ADD SLOAD SWAP2 ADD SLOAD GT ISZERO PUSH2 0x158A JUMPI POP JUMP JUMPDEST DUP1 SLOAD PUSH1 0xFF NOT AND SWAP1 SSTORE JUMP JUMPDEST POP PUSH1 0x6 DUP8 ADD SLOAD PUSH1 0x5 DUP9 ADD SLOAD GT PUSH2 0x12A3 JUMP JUMPDEST DUP1 DUP5 PUSH1 0x40 SWAP3 MSTORE PUSH1 0x4 PUSH1 0x20 MSTORE KECCAK256 SWAP1 PUSH2 0x1296 JUMP JUMPDEST SWAP2 POP POP JUMP JUMPDEST POP PUSH1 0x6 DUP4 ADD SLOAD PUSH1 0x5 DUP5 ADD SLOAD GT ISZERO PUSH2 0x1268 JUMP INVALID LOG2 PUSH5 0x6970667358 0x22 SLT KECCAK256 SWAP4 0x2E 0xAE COINBASE LOG2 DELEGATECALL COINBASE PUSH29 0xDA4CBE35213D898BFB90F3C786B4EC98A021159D13B1758864736F6C63 NUMBER STOP ADDMOD SHR STOP CALLER "},"methodIdentifiers":{"cancelOrder(uint256)":"514fcac7","createMarket(string,string,uint256)":"f98b7783","getMarketLiquidity(uint256)":"07b322a4","getMarketOrders(uint256,bool)":"efb9fd4b","getMarketPrice(uint256)":"8928378e","getOrderDetails(uint256)":"ec7dd7bb","getUserPosition(address,uint256)":"1c88ef1e","marketCount()":"ec979082","marketNoOrders(uint256,uint256)":"7f55821c","marketYesOrders(uint256,uint256)":"916520aa","markets(uint256)":"b1283e77","orderCount()":"2453ffa8","orders(uint256)":"a85c38ef","placeOrder(uint256,bool,uint256,uint256)":"cc88135d","resolveMarket(uint256,bool)":"57bde446","userPositions(address,uint256)":"5e1b4d99"}}}}}