{
  "_format": "hh-sol-artifact-1",
  "contractName": "PredictionMarket",
  "sourceName": "contracts/PredictionMarket.sol",
  "abi": [
    {
      "inputs": [],
      "stateMutability": "nonpayable",
      "type": "constructor"
    },
    {
      "anonymous": false,
      "inputs": [
        {
          "indexed": true,
          "internalType": "uint256",
          "name": "marketId",
          "type": "uint256"
        },
        {
          "indexed": false,
          "internalType": "string",
          "name": "title",
          "type": "string"
        },
        {
          "indexed": false,
          "internalType": "address",
          "name": "creator",
          "type": "address"
        }
      ],
      "name": "MarketCreated",
      "type": "event"
    },
    {
      "anonymous": false,
      "inputs": [
        {
          "indexed": true,
          "internalType": "uint256",
          "name": "marketId",
          "type": "uint256"
        },
        {
          "indexed": false,
          "internalType": "bool",
          "name": "outcome",
          "type": "bool"
        }
      ],
      "name": "MarketResolved",
      "type": "event"
    },
    {
      "anonymous": false,
      "inputs": [
        {
          "indexed": true,
          "internalType": "uint256",
          "name": "orderId",
          "type": "uint256"
        }
      ],
      "name": "OrderCancelled",
      "type": "event"
    },
    {
      "anonymous": false,
      "inputs": [
        {
          "indexed": true,
          "internalType": "uint256",
          "name": "orderId",
          "type": "uint256"
        },
        {
          "indexed": true,
          "internalType": "uint256",
          "name": "marketId",
          "type": "uint256"
        },
        {
          "indexed": true,
          "internalType": "address",
          "name": "trader",
          "type": "address"
        },
        {
          "indexed": false,
          "internalType": "bool",
          "name": "isYes",
          "type": "bool"
        },
        {
          "indexed": false,
          "internalType": "uint256",
          "name": "price",
          "type": "uint256"
        },
        {
          "indexed": false,
          "internalType": "uint256",
          "name": "amount",
          "type": "uint256"
        }
      ],
      "name": "OrderFilled",
      "type": "event"
    },
    {
      "anonymous": false,
      "inputs": [
        {
          "indexed": true,
          "internalType": "uint256",
          "name": "orderId",
          "type": "uint256"
        },
        {
          "indexed": true,
          "internalType": "uint256",
          "name": "marketId",
          "type": "uint256"
        },
        {
          "indexed": true,
          "internalType": "address",
          "name": "trader",
          "type": "address"
        },
        {
          "indexed": false,
          "internalType": "bool",
          "name": "isYes",
          "type": "bool"
        },
        {
          "indexed": false,
          "internalType": "uint256",
          "name": "price",
          "type": "uint256"
        },
        {
          "indexed": false,
          "internalType": "uint256",
          "name": "amount",
          "type": "uint256"
        }
      ],
      "name": "OrderPlaced",
      "type": "event"
    },
    {
      "anonymous": false,
      "inputs": [
        {
          "indexed": true,
          "internalType": "address",
          "name": "buyer",
          "type": "address"
        },
        {
          "indexed": true,
          "internalType": "uint256",
          "name": "marketId",
          "type": "uint256"
        },
        {
          "indexed": false,
          "internalType": "bool",
          "name": "isYes",
          "type": "bool"
        },
        {
          "indexed": false,
          "internalType": "uint256",
          "name": "shares",
          "type": "uint256"
        },
        {
          "indexed": false,
          "internalType": "uint256",
          "name": "cost",
          "type": "uint256"
        }
      ],
      "name": "SharesPurchased",
      "type": "event"
    },
    {
      "inputs": [
        {
          "internalType": "uint256",
          "name": "orderId",
          "type": "uint256"
        }
      ],
      "name": "cancelOrder",
      "outputs": [],
      "stateMutability": "nonpayable",
      "type": "function"
    },
    {
      "inputs": [
        {
          "internalType": "string",
          "name": "title",
          "type": "string"
        },
        {
          "internalType": "string",
          "name": "description",
          "type": "string"
        },
        {
          "internalType": "uint256",
          "name": "resolutionTime",
          "type": "uint256"
        }
      ],
      "name": "createMarket",
      "outputs": [],
      "stateMutability": "nonpayable",
      "type": "function"
    },
    {
      "inputs": [
        {
          "internalType": "uint256",
          "name": "marketId",
          "type": "uint256"
        }
      ],
      "name": "getMarketLiquidity",
      "outputs": [
        {
          "internalType": "uint256",
          "name": "",
          "type": "uint256"
        }
      ],
      "stateMutability": "view",
      "type": "function"
    },
    {
      "inputs": [
        {
          "internalType": "uint256",
          "name": "marketId",
          "type": "uint256"
        },
        {
          "internalType": "bool",
          "name": "isYes",
          "type": "bool"
        }
      ],
      "name": "getMarketOrders",
      "outputs": [
        {
          "internalType": "uint256[]",
          "name": "",
          "type": "uint256[]"
        }
      ],
      "stateMutability": "view",
      "type": "function"
    },
    {
      "inputs": [
        {
          "internalType": "uint256",
          "name": "marketId",
          "type": "uint256"
        }
      ],
      "name": "getMarketPrice",
      "outputs": [
        {
          "internalType": "uint256",
          "name": "yesPrice",
          "type": "uint256"
        },
        {
          "internalType": "uint256",
          "name": "noPrice",
          "type": "uint256"
        }
      ],
      "stateMutability": "view",
      "type": "function"
    },
    {
      "inputs": [
        {
          "internalType": "uint256",
          "name": "orderId",
          "type": "uint256"
        }
      ],
      "name": "getOrderDetails",
      "outputs": [
        {
          "internalType": "address",
          "name": "trader",
          "type": "address"
        },
        {
          "internalType": "uint256",
          "name": "marketId",
          "type": "uint256"
        },
        {
          "internalType": "bool",
          "name": "isYes",
          "type": "bool"
        },
        {
          "internalType": "uint256",
          "name": "price",
          "type": "uint256"
        },
        {
          "internalType": "uint256",
          "name": "amount",
          "type": "uint256"
        },
        {
          "internalType": "uint256",
          "name": "filled",
          "type": "uint256"
        },
        {
          "internalType": "bool",
          "name": "isActive",
          "type": "bool"
        }
      ],
      "stateMutability": "view",
      "type": "function"
    },
    {
      "inputs": [
        {
          "internalType": "address",
          "name": "user",
          "type": "address"
        },
        {
          "internalType": "uint256",
          "name": "marketId",
          "type": "uint256"
        }
      ],
      "name": "getUserPosition",
      "outputs": [
        {
          "internalType": "uint256",
          "name": "yesShares",
          "type": "uint256"
        },
        {
          "internalType": "uint256",
          "name": "noShares",
          "type": "uint256"
        }
      ],
      "stateMutability": "view",
      "type": "function"
    },
    {
      "inputs": [],
      "name": "marketCount",
      "outputs": [
        {
          "internalType": "uint256",
          "name": "",
          "type": "uint256"
        }
      ],
      "stateMutability": "view",
      "type": "function"
    },
    {
      "inputs": [
        {
          "internalType": "uint256",
          "name": "",
          "type": "uint256"
        },
        {
          "internalType": "uint256",
          "name": "",
          "type": "uint256"
        }
      ],
      "name": "marketNoOrders",
      "outputs": [
        {
          "internalType": "uint256",
          "name": "",
          "type": "uint256"
        }
      ],
      "stateMutability": "view",
      "type": "function"
    },
    {
      "inputs": [
        {
          "internalType": "uint256",
          "name": "",
          "type": "uint256"
        },
        {
          "internalType": "uint256",
          "name": "",
          "type": "uint256"
        }
      ],
      "name": "marketYesOrders",
      "outputs": [
        {
          "internalType": "uint256",
          "name": "",
          "type": "uint256"
        }
      ],
      "stateMutability": "view",
      "type": "function"
    },
    {
      "inputs": [
        {
          "internalType": "uint256",
          "name": "",
          "type": "uint256"
        }
      ],
      "name": "markets",
      "outputs": [
        {
          "internalType": "uint256",
          "name": "id",
          "type": "uint256"
        },
        {
          "internalType": "string",
          "name": "title",
          "type": "string"
        },
        {
          "internalType": "string",
          "name": "description",
          "type": "string"
        },
        {
          "internalType": "uint256",
          "name": "yesPrice",
          "type": "uint256"
        },
        {
          "internalType": "uint256",
          "name": "noPrice",
          "type": "uint256"
        },
        {
          "internalType": "uint256",
          "name": "liquidity",
          "type": "uint256"
        },
        {
          "internalType": "uint256",
          "name": "volume",
          "type": "uint256"
        },
        {
          "internalType": "bool",
          "name": "resolved",
          "type": "bool"
        },
        {
          "internalType": "bool",
          "name": "outcome",
          "type": "bool"
        },
        {
          "internalType": "address",
          "name": "creator",
          "type": "address"
        },
        {
          "internalType": "uint256",
          "name": "creationTime",
          "type": "uint256"
        },
        {
          "internalType": "uint256",
          "name": "resolutionTime",
          "type": "uint256"
        }
      ],
      "stateMutability": "view",
      "type": "function"
    },
    {
      "inputs": [],
      "name": "orderCount",
      "outputs": [
        {
          "internalType": "uint256",
          "name": "",
          "type": "uint256"
        }
      ],
      "stateMutability": "view",
      "type": "function"
    },
    {
      "inputs": [
        {
          "internalType": "uint256",
          "name": "",
          "type": "uint256"
        }
      ],
      "name": "orders",
      "outputs": [
        {
          "internalType": "uint256",
          "name": "id",
          "type": "uint256"
        },
        {
          "internalType": "address",
          "name": "trader",
          "type": "address"
        },
        {
          "internalType": "uint256",
          "name": "marketId",
          "type": "uint256"
        },
        {
          "internalType": "bool",
          "name": "isYes",
          "type": "bool"
        },
        {
          "internalType": "uint256",
          "name": "price",
          "type": "uint256"
        },
        {
          "internalType": "uint256",
          "name": "amount",
          "type": "uint256"
        },
        {
          "internalType": "uint256",
          "name": "filled",
          "type": "uint256"
        },
        {
          "internalType": "bool",
          "name": "isActive",
          "type": "bool"
        }
      ],
      "stateMutability": "view",
      "type": "function"
    },
    {
      "inputs": [
        {
          "internalType": "uint256",
          "name": "marketId",
          "type": "uint256"
        },
        {
          "internalType": "bool",
          "name": "isYes",
          "type": "bool"
        },
        {
          "internalType": "uint256",
          "name": "price",
          "type": "uint256"
        },
        {
          "internalType": "uint256",
          "name": "amount",
          "type": "uint256"
        }
      ],
      "name": "placeOrder",
      "outputs": [
        {
          "internalType": "uint256",
          "name": "",
          "type": "uint256"
        }
      ],
      "stateMutability": "payable",
      "type": "function"
    },
    {
      "inputs": [
        {
          "internalType": "uint256",
          "name": "marketId",
          "type": "uint256"
        },
        {
          "internalType": "bool",
          "name": "outcome",
          "type": "bool"
        }
      ],
      "name": "resolveMarket",
      "outputs": [],
      "stateMutability": "nonpayable",
      "type": "function"
    },
    {
      "inputs": [
        {
          "internalType": "address",
          "name": "",
          "type": "address"
        },
        {
          "internalType": "uint256",
          "name": "",
          "type": "uint256"
        }
      ],
      "name": "userPositions",
      "outputs": [
        {
          "internalType": "uint256",
          "name": "yesShares",
          "type": "uint256"
        },
        {
          "internalType": "uint256",
          "name": "noShares",
          "type": "uint256"
        }
      ],
      "stateMutability": "view",
      "type": "function"
    }
  ],
  "bytecode": "0x60808060405234601e5760008055600060025561160490816100248239f35b600080fdfe6080604052600436101561001257600080fd5b60003560e01c806307b322a414610ee85780631c88ef1e14610c805780632453ffa814610eca578063514fcac714610d8557806357bde44614610cc45780635e1b4d9914610c805780637f55821c14610c4f5780638928378e14610bf9578063916520aa14610bb9578063a85c38ef14610b2e578063b1283e7714610a49578063cc88135d1461074b578063ec7dd7bb146106c9578063ec979082146106ab578063efb9fd4b146105dd5763f98b7783146100cc57600080fd5b346105d85760603660031901126105d85760043567ffffffffffffffff81116105d8576100fd9036906004016110ef565b60243567ffffffffffffffff81116105d85761011d9036906004016110ef565b60443582511561059b578151156105565742811115610503576101416000546111f2565b8060005560405192610180840184811067ffffffffffffffff82111761042a5760405281845260208401858152604085019182526060850191611388835260808601611388815260a08701670de0b6b3a7640000815260c08801916000835260e0890195600087526101008a0194600086526101208b01963388526101408c0199428b526101608d019b8c52600052600160205260406000209b518c5560018c01905180519067ffffffffffffffff821161042a5781906102028454610fae565b601f81116104b0575b50602090601f831160011461044b57600092610440575b50508160011b916000199060031b1c19161790555b51805160028c019167ffffffffffffffff821161042a576102588354610fae565b601f81116103e2575b50602090601f831160011461036c5791806102ec9896949260099e9d9c9b9a989694600092610361575b50508160011b916000199060031b1c19161790555b5160038c01555160048b01555160058a01555160068901556102d56007890194511515859060ff801983541691151516179055565b51835461ff00191690151560081b61ff0016178355565b51815462010000600160b01b03191660109190911b62010000600160b01b0316179055516008840155519101556000546040805181815291927f6bfe994aa671108bc4fcb31c2a97ab16ddb967720121010032b2e834bf5eacf692918291610356918301906110ae565b3360208301520390a2005b01519050388061028b565b90601f1983169184600052816000209260005b8181106103ca57509260019260099f9e9d9c9b99979592836102ec9c9a9896106103b1575b505050811b0190556102a0565b015160001960f88460031b161c191690553880806103a4565b9293602060018192878601518155019501930161037f565b836000526020600020601f840160051c81019160208510610420575b601f0160051c01905b8181106104145750610261565b60008155600101610407565b90915081906103fe565b634e487b7160e01b600052604160045260246000fd5b015190503880610222565b60008581528281209350601f198516905b818110610498575090846001959493921061047f575b505050811b019055610237565b015160001960f88460031b161c19169055388080610472565b9293602060018192878601518155019501930161045c565b909150836000526020600020601f840160051c810191602085106104f9575b90601f859493920160051c01905b8181106104ea575061020b565b600081558493506001016104dd565b90915081906104cf565b60405162461bcd60e51b815260206004820152602560248201527f5265736f6c7574696f6e2074696d65206d75737420626520696e207468652066604482015264757475726560d81b6064820152608490fd5b60405162461bcd60e51b815260206004820152601b60248201527f4465736372697074696f6e2063616e6e6f7420626520656d70747900000000006044820152606490fd5b60405162461bcd60e51b81526020600482015260156024820152745469746c652063616e6e6f7420626520656d70747960581b6044820152606490fd5b600080fd5b346105d85760403660031901126105d8576004356105f9610f5b565b6000901561069b5750600052600460205260406000205b6040518060208354918281520190819360005260206000209060005b8181106106855750505081610642910382610fe8565b6040519182916020830190602084525180915260408301919060005b81811061066c575050500390f35b825184528594506020938401939092019160010161065e565b825484526020909301926001928301920161062c565b6040918152600560205220610610565b346105d85760003660031901126105d8576020600054604051908152f35b346105d85760203660031901126105d857600435600052600360205260e0604060002060018060a01b036001820154169060028101549060ff600382015416600482015460058301549160ff6007600686015495015416946040519687526020870152151560408601526060850152608084015260a0830152151560c0820152f35b60803660031901126105d857600435610762610f5b565b906044359160643582151580610a3d575b61077c90611146565b82600052600160205261079a60ff60076040600020015416156111a6565b8315801580610a32575b156109ee5734156109a957612710340290348204612710036109935761097d5784900481151580610974575b1561096c5750915b6107e36002546111f2565b93846002556040519461010086019580871067ffffffffffffffff88111761042a5760076108cd926109409860405280835260208301338152604084018781526060850189151581526108a5608087019189835260a08801938d855260c08901956000875260e08a0197600189526000526003602052604060002099518a5560018a019060018060a01b039051166bffffffffffffffffffffffff60a01b825416179055516002890155511515600388019060ff801983541691151516179055565b51600486015551600585015551600684015551151591019060ff801983541691151516179055565b821561094d578160005260046020526108ed604060002060025490611201565b7fb3f56f4d6c2dea5d6536e848df8b950b9d0da9d1d2a9e588b3d8ce6dd4333e2260025494859261093860405192839233988460409194939260608201951515825260208201520152565b0390a4611248565b6020600254604051908152f35b816000526005602052610967604060002060025490611201565b6108ed565b9050916107d8565b508082106107d0565b634e487b7160e01b600052601260045260246000fd5b634e487b7160e01b600052601160045260246000fd5b60405162461bcd60e51b815260206004820152601c60248201527f4d7573742073656e642045544820746f20706c616365206f72646572000000006044820152606490fd5b606460405162461bcd60e51b815260206004820152602060248201527f5072696365206d757374206265206265747765656e203020616e6420313030256044820152fd5b5061271085106107a4565b50600054831115610773565b346105d85760203660031901126105d857600435600052600160205260406000208054610a786001830161100a565b91610a856002820161100a565b60038201549160048101546005820154600683015490600784015492610adb6009600887015496015496610acd6040519b8c9b8c5261018060208d01526101808c01906110ae565b908a820360408c01526110ae565b6060890197909752608088015260a087015260c086015260ff818116151560e0870152600882901c16151561010086015260101c6001600160a01b03166101208501526101408401526101608301520390f35b346105d85760203660031901126105d8576004356000526003602052610100604060002080549060018060a01b0360018201541690600281015460ff60038301541660048301549060058401549260ff6007600687015496015416956040519788526020880152604087015215156060860152608085015260a084015260c0830152151560e0820152f35b346105d857610bc736610f6a565b906000526004602052604060002080548210156105d857602091610bea91610f80565b90549060031b1c604051908152f35b346105d85760203660031901126105d85760043580151580610c43575b610c1f90611146565b60005260016020526040806000206004600382015491015482519182526020820152f35b50600054811115610c16565b346105d857610c5d36610f6a565b906000526005602052604060002080548210156105d857602091610bea91610f80565b346105d857610c8e36610f35565b9060018060a01b031660005260066020526040600020906000526020526040806000206001815491015482519182526020820152f35b346105d85760403660031901126105d8576004357f4927fe38919783250023d27e65a3e56b6b5c3e49364e51674a41ef08d62460d96020610d03610f5b565b83151580610d79575b610d1590611146565b8360005260018252610d3260ff60076040600020015416156111a6565b6000848152600180845260408083206007908101805460ff19168417905587845291855290912001805461ff00191682151560081b61ff00161790556040519015158152a2005b50600054841115610d0c565b346105d85760203660031901126105d857600435600081815260036020526040902060018101546001600160a01b03163303610e9457600781019081549060ff821615610e5c5761271092610df89260ff191690556004610def6005830154600684015490611186565b91015490611193565b0480158015610e2a575b827f61b9399f2f0f32ca39ce8d7be32caed5ec22fe07a6daba3a467ed479ec606582600080a2005b600080809381938290610e53575b3390f115610e47578180610e02565b6040513d6000823e3d90fd5b506108fc610e38565b60405162461bcd60e51b815260206004820152601060248201526f4f72646572206e6f742061637469766560801b6044820152606490fd5b60405162461bcd60e51b815260206004820152600e60248201526d2737ba103cb7bab91037b93232b960911b6044820152606490fd5b346105d85760003660031901126105d8576020600254604051908152f35b346105d85760203660031901126105d85760043580151580610f29575b610f0e90611146565b60005260016020526020600560406000200154604051908152f35b50600054811115610f05565b60409060031901126105d8576004356001600160a01b03811681036105d8579060243590565b6024359081151582036105d857565b60409060031901126105d8576004359060243590565b8054821015610f985760005260206000200190600090565b634e487b7160e01b600052603260045260246000fd5b90600182811c92168015610fde575b6020831014610fc857565b634e487b7160e01b600052602260045260246000fd5b91607f1691610fbd565b90601f8019910116810190811067ffffffffffffffff82111761042a57604052565b906040519182600082549261101e84610fae565b808452936001811690811561108c5750600114611045575b5061104392500383610fe8565b565b90506000929192526020600020906000915b8183106110705750509060206110439282010138611036565b6020919350806001915483858901015201910190918492611057565b90506020925061104394915060ff191682840152151560051b82010138611036565b919082519283825260005b8481106110da575050826000602080949584010152601f8019910116010190565b806020809284010151828286010152016110b9565b81601f820112156105d85780359067ffffffffffffffff821161042a5760405192611124601f8401601f191660200185610fe8565b828452602083830101116105d857816000926020809301838601378301015290565b1561114d57565b60405162461bcd60e51b8152602060048201526011602482015270125b9d985b1a59081b585c9ad95d081251607a1b6044820152606490fd5b9190820391821161099357565b8181029291811591840414171561099357565b156111ad57565b60405162461bcd60e51b815260206004820152601760248201527f4d61726b657420616c7265616479207265736f6c7665640000000000000000006044820152606490fd5b60001981146109935760010190565b80546801000000000000000081101561042a5761122391600182018155610f80565b819291549060031b91821b91600019901b1916179055565b9190820180921161099357565b6000526003602052604060002090600782019060ff8254161580156115bc575b6115b75760028301549060ff600385015416906000826000146115a557508260005260056020526040600020905b60005b8254811080611594575b15611571576112b28184610f80565b90549060031b1c600052600360205260406000209060ff60078301541615801561155f575b6112f8576127106112f160048a015460048501549061123b565b1115611307575b61130291506111f2565b611299565b6005880154916006890161134361132082548096611186565b6113336005850154600686015490611186565b808210156115565750809561123b565b905561135383600683015461123b565b600682015560018060a01b0360018a0154166000526006602052604060002087600052602052604060002060018060a01b036001830154166000526006602052604060002088600052602052604060002090876000146115345790816113bc866001945461123b565b9055016113ca84825461123b565b90555b8660005260016020526040600020926127106113fb6113f560048d015460048601549061123b565b83611193565b0461140b6006860191825461123b565b9055861561150b5760048a0154938460038201556127108581031161099357600461130295612710039101555b895460018b015460048c0154604080518b15158152602081019290925281018490526001600160a01b03909116918a917fe5e1f82f95eaad8b51715234cffb8a81d56b2a3f64ebd9c7f2ab7841e4053dfc90606090a4815460018301546004840154604080518b15815260208101929092528101939093526001600160a01b0316918991907fe5e1f82f95eaad8b51715234cffb8a81d56b2a3f64ebd9c7f2ab7841e4053dfc90606090a46006810154600582015411156114fa575b506112f8565b600701805460ff19169055386114f4565b60048a015493846004820155612710858103116109935760036113029561271003910155611438565b60010161154285825461123b565b905561154f84825461123b565b90556113cd565b9050809561123b565b506006820154600583015411156112d7565b50949250505060056006820154910154111561158a5750565b805460ff19169055565b5060068701546005880154116112a3565b80846040925260046020522090611296565b915050565b5060068301546005840154111561126856fea2646970667358221220932eae41a2f4417cda4cbe35213d898bfb90f3c786b4ec98a021159d13b1758864736f6c634300081c0033",
  "linkReferences": {},
  "deployedLinkReferences": {}
}